{
	"DataTypesol.sol": {
		"DataType": {
			"abi": [
				{
					"inputs": [],
					"stateMutability": "payable",
					"type": "constructor"
				},
				{
					"inputs": [],
					"name": "a",
					"outputs": [
						{
							"internalType": "address",
							"name": "",
							"type": "address"
						}
					],
					"stateMutability": "view",
					"type": "function"
				},
				{
					"inputs": [],
					"name": "b",
					"outputs": [
						{
							"internalType": "address",
							"name": "",
							"type": "address"
						}
					],
					"stateMutability": "view",
					"type": "function"
				},
				{
					"inputs": [],
					"name": "c",
					"outputs": [
						{
							"internalType": "address",
							"name": "",
							"type": "address"
						}
					],
					"stateMutability": "view",
					"type": "function"
				},
				{
					"inputs": [],
					"name": "maxInt",
					"outputs": [
						{
							"internalType": "int256",
							"name": "",
							"type": "int256"
						}
					],
					"stateMutability": "view",
					"type": "function"
				},
				{
					"inputs": [],
					"name": "maxuInt",
					"outputs": [
						{
							"internalType": "uint256",
							"name": "",
							"type": "uint256"
						}
					],
					"stateMutability": "view",
					"type": "function"
				},
				{
					"inputs": [],
					"name": "minInt",
					"outputs": [
						{
							"internalType": "int256",
							"name": "",
							"type": "int256"
						}
					],
					"stateMutability": "view",
					"type": "function"
				},
				{
					"inputs": [],
					"name": "minuInt",
					"outputs": [
						{
							"internalType": "uint256",
							"name": "",
							"type": "uint256"
						}
					],
					"stateMutability": "view",
					"type": "function"
				}
			],
			"devdoc": {
				"kind": "dev",
				"methods": {},
				"version": 1
			},
			"evm": {
				"assembly": "    /* \"DataTypesol.sol\":99:526  contract DataType {... */\n  mstore(0x40, 0x80)\n    /* \"DataTypesol.sol\":134:138  -100 */\n  0xffffffffffffffffffffffffffffffffffffffffffffffffffffffffffffff9c\n    /* \"DataTypesol.sol\":126:138  int x = -100 */\n  0x00\n  sstore\n    /* \"DataTypesol.sol\":154:157  100 */\n  0x64\n    /* \"DataTypesol.sol\":145:157  uint y = 100 */\n  0x01\n  sstore\n    /* \"DataTypesol.sol\":187:200  type(int).min */\n  0x8000000000000000000000000000000000000000000000000000000000000000\n    /* \"DataTypesol.sol\":166:200  int public  minInt = type(int).min */\n  0x02\n  sstore\n    /* \"DataTypesol.sol\":228:241  type(int).max */\n  0x7fffffffffffffffffffffffffffffffffffffffffffffffffffffffffffffff\n    /* \"DataTypesol.sol\":207:241  int public  maxInt = type(int).max */\n  0x03\n  sstore\n    /* \"DataTypesol.sol\":273:287  type(uint).min */\n  0x00\n    /* \"DataTypesol.sol\":250:287  uint public  minuInt = type(uint).min */\n  0x04\n  sstore\n    /* \"DataTypesol.sol\":317:331  type(uint).max */\n  0xffffffffffffffffffffffffffffffffffffffffffffffffffffffffffffffff\n    /* \"DataTypesol.sol\":294:331  uint public  maxuInt = type(uint).max */\n  0x05\n  sstore\n    /* \"DataTypesol.sol\":401:411  msg.sender */\n  caller\n    /* \"DataTypesol.sol\":382:411  address public a = msg.sender */\n  0x06\n  exp(0x0100, 0x00)\n  dup2\n  sload\n  dup2\n  0xffffffffffffffffffffffffffffffffffffffff\n  mul\n  not\n  and\n  swap1\n  dup4\n  0xffffffffffffffffffffffffffffffffffffffff\n  and\n  mul\n  or\n  swap1\n  sstore\n  pop\n    /* \"DataTypesol.sol\":437:479  0xAb8483F64d9C6d1EcF9b849Ae677dD3315835cb2 */\n  0xab8483f64d9c6d1ecf9b849ae677dd3315835cb2\n    /* \"DataTypesol.sol\":418:479  address public b = 0xAb8483F64d9C6d1EcF9b849Ae677dD3315835cb2 */\n  0x07\n  exp(0x0100, 0x00)\n  dup2\n  sload\n  dup2\n  0xffffffffffffffffffffffffffffffffffffffff\n  mul\n  not\n  and\n  swap1\n  dup4\n  0xffffffffffffffffffffffffffffffffffffffff\n  and\n  mul\n  or\n  swap1\n  sstore\n  pop\n    /* \"DataTypesol.sol\":513:517  this */\n  address\n    /* \"DataTypesol.sol\":486:518  address public c = address(this) */\n  0x08\n  exp(0x0100, 0x00)\n  dup2\n  sload\n  dup2\n  0xffffffffffffffffffffffffffffffffffffffff\n  mul\n  not\n  and\n  swap1\n  dup4\n  0xffffffffffffffffffffffffffffffffffffffff\n  and\n  mul\n  or\n  swap1\n  sstore\n  pop\n    /* \"DataTypesol.sol\":99:526  contract DataType {... */\n  dataSize(sub_0)\n  dup1\n  dataOffset(sub_0)\n  0x00\n  codecopy\n  0x00\n  return\nstop\n\nsub_0: assembly {\n        /* \"DataTypesol.sol\":99:526  contract DataType {... */\n      mstore(0x40, 0x80)\n      callvalue\n      dup1\n      iszero\n      tag_1\n      jumpi\n      0x00\n      dup1\n      revert\n    tag_1:\n      pop\n      jumpi(tag_2, lt(calldatasize, 0x04))\n      shr(0xe0, calldataload(0x00))\n      dup1\n      0x7e4e14cc\n      gt\n      tag_10\n      jumpi\n      dup1\n      0x7e4e14cc\n      eq\n      tag_6\n      jumpi\n      dup1\n      0x9fc559d8\n      eq\n      tag_7\n      jumpi\n      dup1\n      0xa604061c\n      eq\n      tag_8\n      jumpi\n      dup1\n      0xc3da42b8\n      eq\n      tag_9\n      jumpi\n      jump(tag_2)\n    tag_10:\n      dup1\n      0x0dbe671f\n      eq\n      tag_3\n      jumpi\n      dup1\n      0x4df7e3d0\n      eq\n      tag_4\n      jumpi\n      dup1\n      0x7a4c2571\n      eq\n      tag_5\n      jumpi\n    tag_2:\n      0x00\n      dup1\n      revert\n        /* \"DataTypesol.sol\":382:411  address public a = msg.sender */\n    tag_3:\n      tag_11\n      tag_12\n      jump\t// in\n    tag_11:\n      mload(0x40)\n      tag_13\n      swap2\n      swap1\n      tag_14\n      jump\t// in\n    tag_13:\n      mload(0x40)\n      dup1\n      swap2\n      sub\n      swap1\n      return\n        /* \"DataTypesol.sol\":418:479  address public b = 0xAb8483F64d9C6d1EcF9b849Ae677dD3315835cb2 */\n    tag_4:\n      tag_15\n      tag_16\n      jump\t// in\n    tag_15:\n      mload(0x40)\n      tag_17\n      swap2\n      swap1\n      tag_14\n      jump\t// in\n    tag_17:\n      mload(0x40)\n      dup1\n      swap2\n      sub\n      swap1\n      return\n        /* \"DataTypesol.sol\":207:241  int public  maxInt = type(int).max */\n    tag_5:\n      tag_18\n      tag_19\n      jump\t// in\n    tag_18:\n      mload(0x40)\n      tag_20\n      swap2\n      swap1\n      tag_21\n      jump\t// in\n    tag_20:\n      mload(0x40)\n      dup1\n      swap2\n      sub\n      swap1\n      return\n        /* \"DataTypesol.sol\":166:200  int public  minInt = type(int).min */\n    tag_6:\n      tag_22\n      tag_23\n      jump\t// in\n    tag_22:\n      mload(0x40)\n      tag_24\n      swap2\n      swap1\n      tag_21\n      jump\t// in\n    tag_24:\n      mload(0x40)\n      dup1\n      swap2\n      sub\n      swap1\n      return\n        /* \"DataTypesol.sol\":294:331  uint public  maxuInt = type(uint).max */\n    tag_7:\n      tag_25\n      tag_26\n      jump\t// in\n    tag_25:\n      mload(0x40)\n      tag_27\n      swap2\n      swap1\n      tag_28\n      jump\t// in\n    tag_27:\n      mload(0x40)\n      dup1\n      swap2\n      sub\n      swap1\n      return\n        /* \"DataTypesol.sol\":250:287  uint public  minuInt = type(uint).min */\n    tag_8:\n      tag_29\n      tag_30\n      jump\t// in\n    tag_29:\n      mload(0x40)\n      tag_31\n      swap2\n      swap1\n      tag_28\n      jump\t// in\n    tag_31:\n      mload(0x40)\n      dup1\n      swap2\n      sub\n      swap1\n      return\n        /* \"DataTypesol.sol\":486:518  address public c = address(this) */\n    tag_9:\n      tag_32\n      tag_33\n      jump\t// in\n    tag_32:\n      mload(0x40)\n      tag_34\n      swap2\n      swap1\n      tag_14\n      jump\t// in\n    tag_34:\n      mload(0x40)\n      dup1\n      swap2\n      sub\n      swap1\n      return\n        /* \"DataTypesol.sol\":382:411  address public a = msg.sender */\n    tag_12:\n      0x06\n      0x00\n      swap1\n      sload\n      swap1\n      0x0100\n      exp\n      swap1\n      div\n      0xffffffffffffffffffffffffffffffffffffffff\n      and\n      dup2\n      jump\t// out\n        /* \"DataTypesol.sol\":418:479  address public b = 0xAb8483F64d9C6d1EcF9b849Ae677dD3315835cb2 */\n    tag_16:\n      0x07\n      0x00\n      swap1\n      sload\n      swap1\n      0x0100\n      exp\n      swap1\n      div\n      0xffffffffffffffffffffffffffffffffffffffff\n      and\n      dup2\n      jump\t// out\n        /* \"DataTypesol.sol\":207:241  int public  maxInt = type(int).max */\n    tag_19:\n      sload(0x03)\n      dup2\n      jump\t// out\n        /* \"DataTypesol.sol\":166:200  int public  minInt = type(int).min */\n    tag_23:\n      sload(0x02)\n      dup2\n      jump\t// out\n        /* \"DataTypesol.sol\":294:331  uint public  maxuInt = type(uint).max */\n    tag_26:\n      sload(0x05)\n      dup2\n      jump\t// out\n        /* \"DataTypesol.sol\":250:287  uint public  minuInt = type(uint).min */\n    tag_30:\n      sload(0x04)\n      dup2\n      jump\t// out\n        /* \"DataTypesol.sol\":486:518  address public c = address(this) */\n    tag_33:\n      0x08\n      0x00\n      swap1\n      sload\n      swap1\n      0x0100\n      exp\n      swap1\n      div\n      0xffffffffffffffffffffffffffffffffffffffff\n      and\n      dup2\n      jump\t// out\n        /* \"#utility.yul\":7:133   */\n    tag_35:\n        /* \"#utility.yul\":44:51   */\n      0x00\n        /* \"#utility.yul\":84:126   */\n      0xffffffffffffffffffffffffffffffffffffffff\n        /* \"#utility.yul\":77:82   */\n      dup3\n        /* \"#utility.yul\":73:127   */\n      and\n        /* \"#utility.yul\":62:127   */\n      swap1\n      pop\n        /* \"#utility.yul\":7:133   */\n      swap2\n      swap1\n      pop\n      jump\t// out\n        /* \"#utility.yul\":139:235   */\n    tag_36:\n        /* \"#utility.yul\":176:183   */\n      0x00\n        /* \"#utility.yul\":205:229   */\n      tag_45\n        /* \"#utility.yul\":223:228   */\n      dup3\n        /* \"#utility.yul\":205:229   */\n      tag_35\n      jump\t// in\n    tag_45:\n        /* \"#utility.yul\":194:229   */\n      swap1\n      pop\n        /* \"#utility.yul\":139:235   */\n      swap2\n      swap1\n      pop\n      jump\t// out\n        /* \"#utility.yul\":241:359   */\n    tag_37:\n        /* \"#utility.yul\":328:352   */\n      tag_47\n        /* \"#utility.yul\":346:351   */\n      dup2\n        /* \"#utility.yul\":328:352   */\n      tag_36\n      jump\t// in\n    tag_47:\n        /* \"#utility.yul\":323:326   */\n      dup3\n        /* \"#utility.yul\":316:353   */\n      mstore\n        /* \"#utility.yul\":241:359   */\n      pop\n      pop\n      jump\t// out\n        /* \"#utility.yul\":365:587   */\n    tag_14:\n        /* \"#utility.yul\":458:462   */\n      0x00\n        /* \"#utility.yul\":496:498   */\n      0x20\n        /* \"#utility.yul\":485:494   */\n      dup3\n        /* \"#utility.yul\":481:499   */\n      add\n        /* \"#utility.yul\":473:499   */\n      swap1\n      pop\n        /* \"#utility.yul\":509:580   */\n      tag_49\n        /* \"#utility.yul\":577:578   */\n      0x00\n        /* \"#utility.yul\":566:575   */\n      dup4\n        /* \"#utility.yul\":562:579   */\n      add\n        /* \"#utility.yul\":553:559   */\n      dup5\n        /* \"#utility.yul\":509:580   */\n      tag_37\n      jump\t// in\n    tag_49:\n        /* \"#utility.yul\":365:587   */\n      swap3\n      swap2\n      pop\n      pop\n      jump\t// out\n        /* \"#utility.yul\":593:669   */\n    tag_38:\n        /* \"#utility.yul\":629:636   */\n      0x00\n        /* \"#utility.yul\":658:663   */\n      dup2\n        /* \"#utility.yul\":647:663   */\n      swap1\n      pop\n        /* \"#utility.yul\":593:669   */\n      swap2\n      swap1\n      pop\n      jump\t// out\n        /* \"#utility.yul\":675:790   */\n    tag_39:\n        /* \"#utility.yul\":760:783   */\n      tag_52\n        /* \"#utility.yul\":777:782   */\n      dup2\n        /* \"#utility.yul\":760:783   */\n      tag_38\n      jump\t// in\n    tag_52:\n        /* \"#utility.yul\":755:758   */\n      dup3\n        /* \"#utility.yul\":748:784   */\n      mstore\n        /* \"#utility.yul\":675:790   */\n      pop\n      pop\n      jump\t// out\n        /* \"#utility.yul\":796:1014   */\n    tag_21:\n        /* \"#utility.yul\":887:891   */\n      0x00\n        /* \"#utility.yul\":925:927   */\n      0x20\n        /* \"#utility.yul\":914:923   */\n      dup3\n        /* \"#utility.yul\":910:928   */\n      add\n        /* \"#utility.yul\":902:928   */\n      swap1\n      pop\n        /* \"#utility.yul\":938:1007   */\n      tag_54\n        /* \"#utility.yul\":1004:1005   */\n      0x00\n        /* \"#utility.yul\":993:1002   */\n      dup4\n        /* \"#utility.yul\":989:1006   */\n      add\n        /* \"#utility.yul\":980:986   */\n      dup5\n        /* \"#utility.yul\":938:1007   */\n      tag_39\n      jump\t// in\n    tag_54:\n        /* \"#utility.yul\":796:1014   */\n      swap3\n      swap2\n      pop\n      pop\n      jump\t// out\n        /* \"#utility.yul\":1020:1097   */\n    tag_40:\n        /* \"#utility.yul\":1057:1064   */\n      0x00\n        /* \"#utility.yul\":1086:1091   */\n      dup2\n        /* \"#utility.yul\":1075:1091   */\n      swap1\n      pop\n        /* \"#utility.yul\":1020:1097   */\n      swap2\n      swap1\n      pop\n      jump\t// out\n        /* \"#utility.yul\":1103:1221   */\n    tag_41:\n        /* \"#utility.yul\":1190:1214   */\n      tag_57\n        /* \"#utility.yul\":1208:1213   */\n      dup2\n        /* \"#utility.yul\":1190:1214   */\n      tag_40\n      jump\t// in\n    tag_57:\n        /* \"#utility.yul\":1185:1188   */\n      dup3\n        /* \"#utility.yul\":1178:1215   */\n      mstore\n        /* \"#utility.yul\":1103:1221   */\n      pop\n      pop\n      jump\t// out\n        /* \"#utility.yul\":1227:1449   */\n    tag_28:\n        /* \"#utility.yul\":1320:1324   */\n      0x00\n        /* \"#utility.yul\":1358:1360   */\n      0x20\n        /* \"#utility.yul\":1347:1356   */\n      dup3\n        /* \"#utility.yul\":1343:1361   */\n      add\n        /* \"#utility.yul\":1335:1361   */\n      swap1\n      pop\n        /* \"#utility.yul\":1371:1442   */\n      tag_59\n        /* \"#utility.yul\":1439:1440   */\n      0x00\n        /* \"#utility.yul\":1428:1437   */\n      dup4\n        /* \"#utility.yul\":1424:1441   */\n      add\n        /* \"#utility.yul\":1415:1421   */\n      dup5\n        /* \"#utility.yul\":1371:1442   */\n      tag_41\n      jump\t// in\n    tag_59:\n        /* \"#utility.yul\":1227:1449   */\n      swap3\n      swap2\n      pop\n      pop\n      jump\t// out\n\n    auxdata: 0xa264697066735822122027de6b7661e8af670f5fa36e5ad2f2f16734556d93af4999bf1d4fe2115866e664736f6c634300081a0033\n}\n",
				"bytecode": {
					"linkReferences": {},
					"object": "60806040527fffffffffffffffffffffffffffffffffffffffffffffffffffffffffffffff9c5f5560646001557f80000000000000000000000000000000000000000000000000000000000000006002557f7fffffffffffffffffffffffffffffffffffffffffffffffffffffffffffffff6003555f6004557fffffffffffffffffffffffffffffffffffffffffffffffffffffffffffffffff6005553360065f6101000a81548173ffffffffffffffffffffffffffffffffffffffff021916908373ffffffffffffffffffffffffffffffffffffffff16021790555073ab8483f64d9c6d1ecf9b849ae677dd3315835cb260075f6101000a81548173ffffffffffffffffffffffffffffffffffffffff021916908373ffffffffffffffffffffffffffffffffffffffff1602179055503060085f6101000a81548173ffffffffffffffffffffffffffffffffffffffff021916908373ffffffffffffffffffffffffffffffffffffffff1602179055506102c88061017d5f395ff3fe608060405234801561000f575f80fd5b506004361061007b575f3560e01c80637e4e14cc116100595780637e4e14cc146100d95780639fc559d8146100f7578063a604061c14610115578063c3da42b8146101335761007b565b80630dbe671f1461007f5780634df7e3d01461009d5780637a4c2571146100bb575b5f80fd5b610087610151565b6040516100949190610217565b60405180910390f35b6100a5610176565b6040516100b29190610217565b60405180910390f35b6100c361019b565b6040516100d09190610248565b60405180910390f35b6100e16101a1565b6040516100ee9190610248565b60405180910390f35b6100ff6101a7565b60405161010c9190610279565b60405180910390f35b61011d6101ad565b60405161012a9190610279565b60405180910390f35b61013b6101b3565b6040516101489190610217565b60405180910390f35b60065f9054906101000a900473ffffffffffffffffffffffffffffffffffffffff1681565b60075f9054906101000a900473ffffffffffffffffffffffffffffffffffffffff1681565b60035481565b60025481565b60055481565b60045481565b60085f9054906101000a900473ffffffffffffffffffffffffffffffffffffffff1681565b5f73ffffffffffffffffffffffffffffffffffffffff82169050919050565b5f610201826101d8565b9050919050565b610211816101f7565b82525050565b5f60208201905061022a5f830184610208565b92915050565b5f819050919050565b61024281610230565b82525050565b5f60208201905061025b5f830184610239565b92915050565b5f819050919050565b61027381610261565b82525050565b5f60208201905061028c5f83018461026a565b9291505056fea264697066735822122027de6b7661e8af670f5fa36e5ad2f2f16734556d93af4999bf1d4fe2115866e664736f6c634300081a0033",
					"opcodes": "PUSH1 0x80 PUSH1 0x40 MSTORE PUSH32 0xFFFFFFFFFFFFFFFFFFFFFFFFFFFFFFFFFFFFFFFFFFFFFFFFFFFFFFFFFFFFFF9C PUSH0 SSTORE PUSH1 0x64 PUSH1 0x1 SSTORE PUSH32 0x8000000000000000000000000000000000000000000000000000000000000000 PUSH1 0x2 SSTORE PUSH32 0x7FFFFFFFFFFFFFFFFFFFFFFFFFFFFFFFFFFFFFFFFFFFFFFFFFFFFFFFFFFFFFFF PUSH1 0x3 SSTORE PUSH0 PUSH1 0x4 SSTORE PUSH32 0xFFFFFFFFFFFFFFFFFFFFFFFFFFFFFFFFFFFFFFFFFFFFFFFFFFFFFFFFFFFFFFFF PUSH1 0x5 SSTORE CALLER PUSH1 0x6 PUSH0 PUSH2 0x100 EXP DUP2 SLOAD DUP2 PUSH20 0xFFFFFFFFFFFFFFFFFFFFFFFFFFFFFFFFFFFFFFFF MUL NOT AND SWAP1 DUP4 PUSH20 0xFFFFFFFFFFFFFFFFFFFFFFFFFFFFFFFFFFFFFFFF AND MUL OR SWAP1 SSTORE POP PUSH20 0xAB8483F64D9C6D1ECF9B849AE677DD3315835CB2 PUSH1 0x7 PUSH0 PUSH2 0x100 EXP DUP2 SLOAD DUP2 PUSH20 0xFFFFFFFFFFFFFFFFFFFFFFFFFFFFFFFFFFFFFFFF MUL NOT AND SWAP1 DUP4 PUSH20 0xFFFFFFFFFFFFFFFFFFFFFFFFFFFFFFFFFFFFFFFF AND MUL OR SWAP1 SSTORE POP ADDRESS PUSH1 0x8 PUSH0 PUSH2 0x100 EXP DUP2 SLOAD DUP2 PUSH20 0xFFFFFFFFFFFFFFFFFFFFFFFFFFFFFFFFFFFFFFFF MUL NOT AND SWAP1 DUP4 PUSH20 0xFFFFFFFFFFFFFFFFFFFFFFFFFFFFFFFFFFFFFFFF AND MUL OR SWAP1 SSTORE POP PUSH2 0x2C8 DUP1 PUSH2 0x17D PUSH0 CODECOPY PUSH0 RETURN INVALID PUSH1 0x80 PUSH1 0x40 MSTORE CALLVALUE DUP1 ISZERO PUSH2 0xF JUMPI PUSH0 DUP1 REVERT JUMPDEST POP PUSH1 0x4 CALLDATASIZE LT PUSH2 0x7B JUMPI PUSH0 CALLDATALOAD PUSH1 0xE0 SHR DUP1 PUSH4 0x7E4E14CC GT PUSH2 0x59 JUMPI DUP1 PUSH4 0x7E4E14CC EQ PUSH2 0xD9 JUMPI DUP1 PUSH4 0x9FC559D8 EQ PUSH2 0xF7 JUMPI DUP1 PUSH4 0xA604061C EQ PUSH2 0x115 JUMPI DUP1 PUSH4 0xC3DA42B8 EQ PUSH2 0x133 JUMPI PUSH2 0x7B JUMP JUMPDEST DUP1 PUSH4 0xDBE671F EQ PUSH2 0x7F JUMPI DUP1 PUSH4 0x4DF7E3D0 EQ PUSH2 0x9D JUMPI DUP1 PUSH4 0x7A4C2571 EQ PUSH2 0xBB JUMPI JUMPDEST PUSH0 DUP1 REVERT JUMPDEST PUSH2 0x87 PUSH2 0x151 JUMP JUMPDEST PUSH1 0x40 MLOAD PUSH2 0x94 SWAP2 SWAP1 PUSH2 0x217 JUMP JUMPDEST PUSH1 0x40 MLOAD DUP1 SWAP2 SUB SWAP1 RETURN JUMPDEST PUSH2 0xA5 PUSH2 0x176 JUMP JUMPDEST PUSH1 0x40 MLOAD PUSH2 0xB2 SWAP2 SWAP1 PUSH2 0x217 JUMP JUMPDEST PUSH1 0x40 MLOAD DUP1 SWAP2 SUB SWAP1 RETURN JUMPDEST PUSH2 0xC3 PUSH2 0x19B JUMP JUMPDEST PUSH1 0x40 MLOAD PUSH2 0xD0 SWAP2 SWAP1 PUSH2 0x248 JUMP JUMPDEST PUSH1 0x40 MLOAD DUP1 SWAP2 SUB SWAP1 RETURN JUMPDEST PUSH2 0xE1 PUSH2 0x1A1 JUMP JUMPDEST PUSH1 0x40 MLOAD PUSH2 0xEE SWAP2 SWAP1 PUSH2 0x248 JUMP JUMPDEST PUSH1 0x40 MLOAD DUP1 SWAP2 SUB SWAP1 RETURN JUMPDEST PUSH2 0xFF PUSH2 0x1A7 JUMP JUMPDEST PUSH1 0x40 MLOAD PUSH2 0x10C SWAP2 SWAP1 PUSH2 0x279 JUMP JUMPDEST PUSH1 0x40 MLOAD DUP1 SWAP2 SUB SWAP1 RETURN JUMPDEST PUSH2 0x11D PUSH2 0x1AD JUMP JUMPDEST PUSH1 0x40 MLOAD PUSH2 0x12A SWAP2 SWAP1 PUSH2 0x279 JUMP JUMPDEST PUSH1 0x40 MLOAD DUP1 SWAP2 SUB SWAP1 RETURN JUMPDEST PUSH2 0x13B PUSH2 0x1B3 JUMP JUMPDEST PUSH1 0x40 MLOAD PUSH2 0x148 SWAP2 SWAP1 PUSH2 0x217 JUMP JUMPDEST PUSH1 0x40 MLOAD DUP1 SWAP2 SUB SWAP1 RETURN JUMPDEST PUSH1 0x6 PUSH0 SWAP1 SLOAD SWAP1 PUSH2 0x100 EXP SWAP1 DIV PUSH20 0xFFFFFFFFFFFFFFFFFFFFFFFFFFFFFFFFFFFFFFFF AND DUP2 JUMP JUMPDEST PUSH1 0x7 PUSH0 SWAP1 SLOAD SWAP1 PUSH2 0x100 EXP SWAP1 DIV PUSH20 0xFFFFFFFFFFFFFFFFFFFFFFFFFFFFFFFFFFFFFFFF AND DUP2 JUMP JUMPDEST PUSH1 0x3 SLOAD DUP2 JUMP JUMPDEST PUSH1 0x2 SLOAD DUP2 JUMP JUMPDEST PUSH1 0x5 SLOAD DUP2 JUMP JUMPDEST PUSH1 0x4 SLOAD DUP2 JUMP JUMPDEST PUSH1 0x8 PUSH0 SWAP1 SLOAD SWAP1 PUSH2 0x100 EXP SWAP1 DIV PUSH20 0xFFFFFFFFFFFFFFFFFFFFFFFFFFFFFFFFFFFFFFFF AND DUP2 JUMP JUMPDEST PUSH0 PUSH20 0xFFFFFFFFFFFFFFFFFFFFFFFFFFFFFFFFFFFFFFFF DUP3 AND SWAP1 POP SWAP2 SWAP1 POP JUMP JUMPDEST PUSH0 PUSH2 0x201 DUP3 PUSH2 0x1D8 JUMP JUMPDEST SWAP1 POP SWAP2 SWAP1 POP JUMP JUMPDEST PUSH2 0x211 DUP2 PUSH2 0x1F7 JUMP JUMPDEST DUP3 MSTORE POP POP JUMP JUMPDEST PUSH0 PUSH1 0x20 DUP3 ADD SWAP1 POP PUSH2 0x22A PUSH0 DUP4 ADD DUP5 PUSH2 0x208 JUMP JUMPDEST SWAP3 SWAP2 POP POP JUMP JUMPDEST PUSH0 DUP2 SWAP1 POP SWAP2 SWAP1 POP JUMP JUMPDEST PUSH2 0x242 DUP2 PUSH2 0x230 JUMP JUMPDEST DUP3 MSTORE POP POP JUMP JUMPDEST PUSH0 PUSH1 0x20 DUP3 ADD SWAP1 POP PUSH2 0x25B PUSH0 DUP4 ADD DUP5 PUSH2 0x239 JUMP JUMPDEST SWAP3 SWAP2 POP POP JUMP JUMPDEST PUSH0 DUP2 SWAP1 POP SWAP2 SWAP1 POP JUMP JUMPDEST PUSH2 0x273 DUP2 PUSH2 0x261 JUMP JUMPDEST DUP3 MSTORE POP POP JUMP JUMPDEST PUSH0 PUSH1 0x20 DUP3 ADD SWAP1 POP PUSH2 0x28C PUSH0 DUP4 ADD DUP5 PUSH2 0x26A JUMP JUMPDEST SWAP3 SWAP2 POP POP JUMP INVALID LOG2 PUSH5 0x6970667358 0x22 SLT KECCAK256 0x27 0xDE PUSH12 0x7661E8AF670F5FA36E5AD2F2 CALL PUSH8 0x34556D93AF4999BF SAR 0x4F 0xE2 GT PC PUSH7 0xE664736F6C6343 STOP ADDMOD BYTE STOP CALLER "
				},
				"gasEstimates": {
					"creation": {
						"codeDepositCost": "142400",
						"executionCost": "188494",
						"totalCost": "330894"
					},
					"external": {
						"a()": "2509",
						"b()": "2531",
						"c()": "2574",
						"maxInt()": "2470",
						"maxuInt()": "2447",
						"minInt()": "2425",
						"minuInt()": "2469"
					}
				},
				"methodIdentifiers": {
					"a()": "0dbe671f",
					"b()": "4df7e3d0",
					"c()": "c3da42b8",
					"maxInt()": "7a4c2571",
					"maxuInt()": "9fc559d8",
					"minInt()": "7e4e14cc",
					"minuInt()": "a604061c"
				}
			},
			"storageLayout": {
				"storage": [
					{
						"astId": 5,
						"contract": "DataTypesol.sol:DataType",
						"label": "x",
						"offset": 0,
						"slot": "0",
						"type": "t_int256"
					},
					{
						"astId": 8,
						"contract": "DataTypesol.sol:DataType",
						"label": "y",
						"offset": 0,
						"slot": "1",
						"type": "t_uint256"
					},
					{
						"astId": 15,
						"contract": "DataTypesol.sol:DataType",
						"label": "minInt",
						"offset": 0,
						"slot": "2",
						"type": "t_int256"
					},
					{
						"astId": 22,
						"contract": "DataTypesol.sol:DataType",
						"label": "maxInt",
						"offset": 0,
						"slot": "3",
						"type": "t_int256"
					},
					{
						"astId": 29,
						"contract": "DataTypesol.sol:DataType",
						"label": "minuInt",
						"offset": 0,
						"slot": "4",
						"type": "t_uint256"
					},
					{
						"astId": 36,
						"contract": "DataTypesol.sol:DataType",
						"label": "maxuInt",
						"offset": 0,
						"slot": "5",
						"type": "t_uint256"
					},
					{
						"astId": 44,
						"contract": "DataTypesol.sol:DataType",
						"label": "a",
						"offset": 0,
						"slot": "6",
						"type": "t_address"
					},
					{
						"astId": 47,
						"contract": "DataTypesol.sol:DataType",
						"label": "b",
						"offset": 0,
						"slot": "7",
						"type": "t_address"
					},
					{
						"astId": 53,
						"contract": "DataTypesol.sol:DataType",
						"label": "c",
						"offset": 0,
						"slot": "8",
						"type": "t_address"
					}
				],
				"types": {
					"t_address": {
						"encoding": "inplace",
						"label": "address",
						"numberOfBytes": "20"
					},
					"t_int256": {
						"encoding": "inplace",
						"label": "int256",
						"numberOfBytes": "32"
					},
					"t_uint256": {
						"encoding": "inplace",
						"label": "uint256",
						"numberOfBytes": "32"
					}
				}
			},
			"userdoc": {
				"kind": "user",
				"methods": {},
				"version": 1
			}
		}
	}
}