{
	"StoreType.sol": {
		"person": {
			"abi": [
				{
					"inputs": [
						{
							"internalType": "uint256",
							"name": "value",
							"type": "uint256"
						}
					],
					"name": "changeGender",
					"outputs": [],
					"stateMutability": "nonpayable",
					"type": "function"
				},
				{
					"inputs": [],
					"name": "getName",
					"outputs": [
						{
							"internalType": "string",
							"name": "",
							"type": "string"
						}
					],
					"stateMutability": "view",
					"type": "function"
				},
				{
					"inputs": [],
					"name": "getState",
					"outputs": [
						{
							"components": [
								{
									"internalType": "string",
									"name": "name",
									"type": "string"
								},
								{
									"internalType": "string",
									"name": "gender",
									"type": "string"
								}
							],
							"internalType": "struct person.State",
							"name": "",
							"type": "tuple"
						}
					],
					"stateMutability": "view",
					"type": "function"
				},
				{
					"inputs": [
						{
							"internalType": "string",
							"name": "_name",
							"type": "string"
						},
						{
							"internalType": "string",
							"name": "_gender",
							"type": "string"
						}
					],
					"name": "setState",
					"outputs": [],
					"stateMutability": "nonpayable",
					"type": "function"
				},
				{
					"inputs": [],
					"name": "state",
					"outputs": [
						{
							"internalType": "string",
							"name": "name",
							"type": "string"
						},
						{
							"internalType": "string",
							"name": "gender",
							"type": "string"
						}
					],
					"stateMutability": "view",
					"type": "function"
				}
			],
			"devdoc": {
				"kind": "dev",
				"methods": {},
				"version": 1
			},
			"evm": {
				"assembly": "    /* \"StoreType.sol\":146:927  contract person {... */\n  mstore(0x40, 0x80)\n  callvalue\n  dup1\n  iszero\n  tag_1\n  jumpi\n  0x00\n  dup1\n  revert\ntag_1:\n  pop\n  dataSize(sub_0)\n  dup1\n  dataOffset(sub_0)\n  0x00\n  codecopy\n  0x00\n  return\nstop\n\nsub_0: assembly {\n        /* \"StoreType.sol\":146:927  contract person {... */\n      mstore(0x40, 0x80)\n      callvalue\n      dup1\n      iszero\n      tag_1\n      jumpi\n      0x00\n      dup1\n      revert\n    tag_1:\n      pop\n      jumpi(tag_2, lt(calldatasize, 0x04))\n      shr(0xe0, calldataload(0x00))\n      dup1\n      0x17d7de7c\n      eq\n      tag_3\n      jumpi\n      dup1\n      0x1865c57d\n      eq\n      tag_4\n      jumpi\n      dup1\n      0x652296f1\n      eq\n      tag_5\n      jumpi\n      dup1\n      0xc19d93fb\n      eq\n      tag_6\n      jumpi\n      dup1\n      0xd9038f3c\n      eq\n      tag_7\n      jumpi\n    tag_2:\n      0x00\n      dup1\n      revert\n        /* \"StoreType.sol\":525:619  function getName() external view  returns (string memory) {... */\n    tag_3:\n      tag_8\n      tag_9\n      jump\t// in\n    tag_8:\n      mload(0x40)\n      tag_10\n      swap2\n      swap1\n      tag_11\n      jump\t// in\n    tag_10:\n      mload(0x40)\n      dup1\n      swap2\n      sub\n      swap1\n      return\n        /* \"StoreType.sol\":429:517  function getState() view external returns (State memory) {... */\n    tag_4:\n      tag_12\n      tag_13\n      jump\t// in\n    tag_12:\n      mload(0x40)\n      tag_14\n      swap2\n      swap1\n      tag_15\n      jump\t// in\n    tag_14:\n      mload(0x40)\n      dup1\n      swap2\n      sub\n      swap1\n      return\n        /* \"StoreType.sol\":627:922  function changeGender(uint value) external  {... */\n    tag_5:\n      tag_16\n      0x04\n      dup1\n      calldatasize\n      sub\n      dup2\n      add\n      swap1\n      tag_17\n      swap2\n      swap1\n      tag_18\n      jump\t// in\n    tag_17:\n      tag_19\n      jump\t// in\n    tag_16:\n      stop\n        /* \"StoreType.sol\":248:266  State public state */\n    tag_6:\n      tag_20\n      tag_21\n      jump\t// in\n    tag_20:\n      mload(0x40)\n      tag_22\n      swap3\n      swap2\n      swap1\n      tag_23\n      jump\t// in\n    tag_22:\n      mload(0x40)\n      dup1\n      swap2\n      sub\n      swap1\n      return\n        /* \"StoreType.sol\":275:421  function setState(string calldata _name , string calldata _gender) external {... */\n    tag_7:\n      tag_24\n      0x04\n      dup1\n      calldatasize\n      sub\n      dup2\n      add\n      swap1\n      tag_25\n      swap2\n      swap1\n      tag_26\n      jump\t// in\n    tag_25:\n      tag_27\n      jump\t// in\n    tag_24:\n      stop\n        /* \"StoreType.sol\":525:619  function getName() external view  returns (string memory) {... */\n    tag_9:\n        /* \"StoreType.sol\":568:581  string memory */\n      0x60\n        /* \"StoreType.sol\":601:606  state */\n      0x00\n        /* \"StoreType.sol\":601:611  state.name */\n      dup1\n      add\n        /* \"StoreType.sol\":594:611  return state.name */\n      dup1\n      sload\n      tag_29\n      swap1\n      tag_30\n      jump\t// in\n    tag_29:\n      dup1\n      0x1f\n      add\n      0x20\n      dup1\n      swap2\n      div\n      mul\n      0x20\n      add\n      mload(0x40)\n      swap1\n      dup2\n      add\n      0x40\n      mstore\n      dup1\n      swap3\n      swap2\n      swap1\n      dup2\n      dup2\n      mstore\n      0x20\n      add\n      dup3\n      dup1\n      sload\n      tag_31\n      swap1\n      tag_30\n      jump\t// in\n    tag_31:\n      dup1\n      iszero\n      tag_32\n      jumpi\n      dup1\n      0x1f\n      lt\n      tag_33\n      jumpi\n      0x0100\n      dup1\n      dup4\n      sload\n      div\n      mul\n      dup4\n      mstore\n      swap2\n      0x20\n      add\n      swap2\n      jump(tag_32)\n    tag_33:\n      dup3\n      add\n      swap2\n      swap1\n      0x00\n      mstore\n      keccak256(0x00, 0x20)\n      swap1\n    tag_34:\n      dup2\n      sload\n      dup2\n      mstore\n      swap1\n      0x01\n      add\n      swap1\n      0x20\n      add\n      dup1\n      dup4\n      gt\n      tag_34\n      jumpi\n      dup3\n      swap1\n      sub\n      0x1f\n      and\n      dup3\n      add\n      swap2\n    tag_32:\n      pop\n      pop\n      pop\n      pop\n      pop\n      swap1\n      pop\n        /* \"StoreType.sol\":525:619  function getName() external view  returns (string memory) {... */\n      swap1\n      jump\t// out\n        /* \"StoreType.sol\":429:517  function getState() view external returns (State memory) {... */\n    tag_13:\n        /* \"StoreType.sol\":472:484  State memory */\n      tag_35\n      tag_36\n      jump\t// in\n    tag_35:\n        /* \"StoreType.sol\":504:509  state */\n      0x00\n        /* \"StoreType.sol\":497:509  return state */\n      mload(0x40)\n      dup1\n      0x40\n      add\n      0x40\n      mstore\n      swap1\n      dup2\n      0x00\n      dup3\n      add\n      dup1\n      sload\n      tag_38\n      swap1\n      tag_30\n      jump\t// in\n    tag_38:\n      dup1\n      0x1f\n      add\n      0x20\n      dup1\n      swap2\n      div\n      mul\n      0x20\n      add\n      mload(0x40)\n      swap1\n      dup2\n      add\n      0x40\n      mstore\n      dup1\n      swap3\n      swap2\n      swap1\n      dup2\n      dup2\n      mstore\n      0x20\n      add\n      dup3\n      dup1\n      sload\n      tag_39\n      swap1\n      tag_30\n      jump\t// in\n    tag_39:\n      dup1\n      iszero\n      tag_40\n      jumpi\n      dup1\n      0x1f\n      lt\n      tag_41\n      jumpi\n      0x0100\n      dup1\n      dup4\n      sload\n      div\n      mul\n      dup4\n      mstore\n      swap2\n      0x20\n      add\n      swap2\n      jump(tag_40)\n    tag_41:\n      dup3\n      add\n      swap2\n      swap1\n      0x00\n      mstore\n      keccak256(0x00, 0x20)\n      swap1\n    tag_42:\n      dup2\n      sload\n      dup2\n      mstore\n      swap1\n      0x01\n      add\n      swap1\n      0x20\n      add\n      dup1\n      dup4\n      gt\n      tag_42\n      jumpi\n      dup3\n      swap1\n      sub\n      0x1f\n      and\n      dup3\n      add\n      swap2\n    tag_40:\n      pop\n      pop\n      pop\n      pop\n      pop\n      dup2\n      mstore\n      0x20\n      add\n      0x01\n      dup3\n      add\n      dup1\n      sload\n      tag_43\n      swap1\n      tag_30\n      jump\t// in\n    tag_43:\n      dup1\n      0x1f\n      add\n      0x20\n      dup1\n      swap2\n      div\n      mul\n      0x20\n      add\n      mload(0x40)\n      swap1\n      dup2\n      add\n      0x40\n      mstore\n      dup1\n      swap3\n      swap2\n      swap1\n      dup2\n      dup2\n      mstore\n      0x20\n      add\n      dup3\n      dup1\n      sload\n      tag_44\n      swap1\n      tag_30\n      jump\t// in\n    tag_44:\n      dup1\n      iszero\n      tag_45\n      jumpi\n      dup1\n      0x1f\n      lt\n      tag_46\n      jumpi\n      0x0100\n      dup1\n      dup4\n      sload\n      div\n      mul\n      dup4\n      mstore\n      swap2\n      0x20\n      add\n      swap2\n      jump(tag_45)\n    tag_46:\n      dup3\n      add\n      swap2\n      swap1\n      0x00\n      mstore\n      keccak256(0x00, 0x20)\n      swap1\n    tag_47:\n      dup2\n      sload\n      dup2\n      mstore\n      swap1\n      0x01\n      add\n      swap1\n      0x20\n      add\n      dup1\n      dup4\n      gt\n      tag_47\n      jumpi\n      dup3\n      swap1\n      sub\n      0x1f\n      and\n      dup3\n      add\n      swap2\n    tag_45:\n      pop\n      pop\n      pop\n      pop\n      pop\n      dup2\n      mstore\n      pop\n      pop\n      swap1\n      pop\n        /* \"StoreType.sol\":429:517  function getState() view external returns (State memory) {... */\n      swap1\n      jump\t// out\n        /* \"StoreType.sol\":627:922  function changeGender(uint value) external  {... */\n    tag_19:\n        /* \"StoreType.sol\":741:742  0 */\n      0x00\n        /* \"StoreType.sol\":732:737  value */\n      dup2\n        /* \"StoreType.sol\":732:742  value == 0 */\n      eq\n        /* \"StoreType.sol\":732:756  value == 0 || value == 1 */\n      dup1\n      tag_49\n      jumpi\n      pop\n        /* \"StoreType.sol\":755:756  1 */\n      0x01\n        /* \"StoreType.sol\":746:751  value */\n      dup2\n        /* \"StoreType.sol\":746:756  value == 1 */\n      eq\n        /* \"StoreType.sol\":732:756  value == 0 || value == 1 */\n    tag_49:\n        /* \"StoreType.sol\":724:804  require(value == 0 || value == 1, 'person input value error, it is only 0 or 1') */\n      tag_50\n      jumpi\n      mload(0x40)\n      0x08c379a000000000000000000000000000000000000000000000000000000000\n      dup2\n      mstore\n      0x04\n      add\n      tag_51\n      swap1\n      tag_52\n      jump\t// in\n    tag_51:\n      mload(0x40)\n      dup1\n      swap2\n      sub\n      swap1\n      revert\n    tag_50:\n        /* \"StoreType.sol\":839:840  0 */\n      0x00\n        /* \"StoreType.sol\":830:835  value */\n      dup2\n        /* \"StoreType.sol\":830:840  value == 0 */\n      eq\n        /* \"StoreType.sol\":830:870  value == 0 ? unicode\"男\" : unicode\"女\" */\n      tag_53\n      jumpi\n      mload(0x40)\n      dup1\n      0x40\n      add\n      0x40\n      mstore\n      dup1\n      0x03\n      dup2\n      mstore\n      0x20\n      add\n      0xe5a5b30000000000000000000000000000000000000000000000000000000000\n      dup2\n      mstore\n      pop\n      jump(tag_54)\n    tag_53:\n      mload(0x40)\n      dup1\n      0x40\n      add\n      0x40\n      mstore\n      dup1\n      0x03\n      dup2\n      mstore\n      0x20\n      add\n      0xe794b70000000000000000000000000000000000000000000000000000000000\n      dup2\n      mstore\n      pop\n    tag_54:\n        /* \"StoreType.sol\":815:820  state */\n      0x00\n        /* \"StoreType.sol\":815:827  state.gender */\n      0x01\n      add\n        /* \"StoreType.sol\":815:870  state.gender = value == 0 ? unicode\"男\" : unicode\"女\" */\n      swap1\n      dup2\n      tag_55\n      swap2\n      swap1\n      tag_56\n      jump\t// in\n    tag_55:\n      pop\n        /* \"StoreType.sol\":627:922  function changeGender(uint value) external  {... */\n      pop\n      jump\t// out\n        /* \"StoreType.sol\":248:266  State public state */\n    tag_21:\n      0x00\n      dup1\n      0x00\n      add\n      dup1\n      sload\n      tag_57\n      swap1\n      tag_30\n      jump\t// in\n    tag_57:\n      dup1\n      0x1f\n      add\n      0x20\n      dup1\n      swap2\n      div\n      mul\n      0x20\n      add\n      mload(0x40)\n      swap1\n      dup2\n      add\n      0x40\n      mstore\n      dup1\n      swap3\n      swap2\n      swap1\n      dup2\n      dup2\n      mstore\n      0x20\n      add\n      dup3\n      dup1\n      sload\n      tag_58\n      swap1\n      tag_30\n      jump\t// in\n    tag_58:\n      dup1\n      iszero\n      tag_59\n      jumpi\n      dup1\n      0x1f\n      lt\n      tag_60\n      jumpi\n      0x0100\n      dup1\n      dup4\n      sload\n      div\n      mul\n      dup4\n      mstore\n      swap2\n      0x20\n      add\n      swap2\n      jump(tag_59)\n    tag_60:\n      dup3\n      add\n      swap2\n      swap1\n      0x00\n      mstore\n      keccak256(0x00, 0x20)\n      swap1\n    tag_61:\n      dup2\n      sload\n      dup2\n      mstore\n      swap1\n      0x01\n      add\n      swap1\n      0x20\n      add\n      dup1\n      dup4\n      gt\n      tag_61\n      jumpi\n      dup3\n      swap1\n      sub\n      0x1f\n      and\n      dup3\n      add\n      swap2\n    tag_59:\n      pop\n      pop\n      pop\n      pop\n      pop\n      swap1\n      dup1\n      0x01\n      add\n      dup1\n      sload\n      tag_62\n      swap1\n      tag_30\n      jump\t// in\n    tag_62:\n      dup1\n      0x1f\n      add\n      0x20\n      dup1\n      swap2\n      div\n      mul\n      0x20\n      add\n      mload(0x40)\n      swap1\n      dup2\n      add\n      0x40\n      mstore\n      dup1\n      swap3\n      swap2\n      swap1\n      dup2\n      dup2\n      mstore\n      0x20\n      add\n      dup3\n      dup1\n      sload\n      tag_63\n      swap1\n      tag_30\n      jump\t// in\n    tag_63:\n      dup1\n      iszero\n      tag_64\n      jumpi\n      dup1\n      0x1f\n      lt\n      tag_65\n      jumpi\n      0x0100\n      dup1\n      dup4\n      sload\n      div\n      mul\n      dup4\n      mstore\n      swap2\n      0x20\n      add\n      swap2\n      jump(tag_64)\n    tag_65:\n      dup3\n      add\n      swap2\n      swap1\n      0x00\n      mstore\n      keccak256(0x00, 0x20)\n      swap1\n    tag_66:\n      dup2\n      sload\n      dup2\n      mstore\n      swap1\n      0x01\n      add\n      swap1\n      0x20\n      add\n      dup1\n      dup4\n      gt\n      tag_66\n      jumpi\n      dup3\n      swap1\n      sub\n      0x1f\n      and\n      dup3\n      add\n      swap2\n    tag_64:\n      pop\n      pop\n      pop\n      pop\n      pop\n      swap1\n      pop\n      dup3\n      jump\t// out\n        /* \"StoreType.sol\":275:421  function setState(string calldata _name , string calldata _gender) external {... */\n    tag_27:\n        /* \"StoreType.sol\":375:380  _name */\n      dup4\n      dup4\n        /* \"StoreType.sol\":362:367  state */\n      0x00\n        /* \"StoreType.sol\":362:372  state.name */\n      dup1\n      add\n        /* \"StoreType.sol\":362:380  state.name = _name */\n      swap2\n      dup3\n      tag_68\n      swap3\n      swap2\n      swap1\n      tag_69\n      jump\t// in\n    tag_68:\n      pop\n        /* \"StoreType.sol\":406:413  _gender */\n      dup2\n      dup2\n        /* \"StoreType.sol\":391:396  state */\n      0x00\n        /* \"StoreType.sol\":391:403  state.gender */\n      0x01\n      add\n        /* \"StoreType.sol\":391:413  state.gender = _gender */\n      swap2\n      dup3\n      tag_70\n      swap3\n      swap2\n      swap1\n      tag_69\n      jump\t// in\n    tag_70:\n      pop\n        /* \"StoreType.sol\":275:421  function setState(string calldata _name , string calldata _gender) external {... */\n      pop\n      pop\n      pop\n      pop\n      jump\t// out\n    tag_36:\n      mload(0x40)\n      dup1\n      0x40\n      add\n      0x40\n      mstore\n      dup1\n      0x60\n      dup2\n      mstore\n      0x20\n      add\n      0x60\n      dup2\n      mstore\n      pop\n      swap1\n      jump\t// out\n        /* \"#utility.yul\":7:106   */\n    tag_71:\n        /* \"#utility.yul\":59:65   */\n      0x00\n        /* \"#utility.yul\":93:98   */\n      dup2\n        /* \"#utility.yul\":87:99   */\n      mload\n        /* \"#utility.yul\":77:99   */\n      swap1\n      pop\n        /* \"#utility.yul\":7:106   */\n      swap2\n      swap1\n      pop\n      jump\t// out\n        /* \"#utility.yul\":112:281   */\n    tag_72:\n        /* \"#utility.yul\":196:207   */\n      0x00\n        /* \"#utility.yul\":230:236   */\n      dup3\n        /* \"#utility.yul\":225:228   */\n      dup3\n        /* \"#utility.yul\":218:237   */\n      mstore\n        /* \"#utility.yul\":270:274   */\n      0x20\n        /* \"#utility.yul\":265:268   */\n      dup3\n        /* \"#utility.yul\":261:275   */\n      add\n        /* \"#utility.yul\":246:275   */\n      swap1\n      pop\n        /* \"#utility.yul\":112:281   */\n      swap3\n      swap2\n      pop\n      pop\n      jump\t// out\n        /* \"#utility.yul\":287:426   */\n    tag_73:\n        /* \"#utility.yul\":376:382   */\n      dup3\n        /* \"#utility.yul\":371:374   */\n      dup2\n        /* \"#utility.yul\":366:369   */\n      dup4\n        /* \"#utility.yul\":360:383   */\n      mcopy\n        /* \"#utility.yul\":417:418   */\n      0x00\n        /* \"#utility.yul\":408:414   */\n      dup4\n        /* \"#utility.yul\":403:406   */\n      dup4\n        /* \"#utility.yul\":399:415   */\n      add\n        /* \"#utility.yul\":392:419   */\n      mstore\n        /* \"#utility.yul\":287:426   */\n      pop\n      pop\n      pop\n      jump\t// out\n        /* \"#utility.yul\":432:534   */\n    tag_74:\n        /* \"#utility.yul\":473:479   */\n      0x00\n        /* \"#utility.yul\":524:526   */\n      0x1f\n        /* \"#utility.yul\":520:527   */\n      not\n        /* \"#utility.yul\":515:517   */\n      0x1f\n        /* \"#utility.yul\":508:513   */\n      dup4\n        /* \"#utility.yul\":504:518   */\n      add\n        /* \"#utility.yul\":500:528   */\n      and\n        /* \"#utility.yul\":490:528   */\n      swap1\n      pop\n        /* \"#utility.yul\":432:534   */\n      swap2\n      swap1\n      pop\n      jump\t// out\n        /* \"#utility.yul\":540:917   */\n    tag_75:\n        /* \"#utility.yul\":628:631   */\n      0x00\n        /* \"#utility.yul\":656:695   */\n      tag_115\n        /* \"#utility.yul\":689:694   */\n      dup3\n        /* \"#utility.yul\":656:695   */\n      tag_71\n      jump\t// in\n    tag_115:\n        /* \"#utility.yul\":711:782   */\n      tag_116\n        /* \"#utility.yul\":775:781   */\n      dup2\n        /* \"#utility.yul\":770:773   */\n      dup6\n        /* \"#utility.yul\":711:782   */\n      tag_72\n      jump\t// in\n    tag_116:\n        /* \"#utility.yul\":704:782   */\n      swap4\n      pop\n        /* \"#utility.yul\":791:856   */\n      tag_117\n        /* \"#utility.yul\":849:855   */\n      dup2\n        /* \"#utility.yul\":844:847   */\n      dup6\n        /* \"#utility.yul\":837:841   */\n      0x20\n        /* \"#utility.yul\":830:835   */\n      dup7\n        /* \"#utility.yul\":826:842   */\n      add\n        /* \"#utility.yul\":791:856   */\n      tag_73\n      jump\t// in\n    tag_117:\n        /* \"#utility.yul\":881:910   */\n      tag_118\n        /* \"#utility.yul\":903:909   */\n      dup2\n        /* \"#utility.yul\":881:910   */\n      tag_74\n      jump\t// in\n    tag_118:\n        /* \"#utility.yul\":876:879   */\n      dup5\n        /* \"#utility.yul\":872:911   */\n      add\n        /* \"#utility.yul\":865:911   */\n      swap2\n      pop\n        /* \"#utility.yul\":632:917   */\n      pop\n        /* \"#utility.yul\":540:917   */\n      swap3\n      swap2\n      pop\n      pop\n      jump\t// out\n        /* \"#utility.yul\":923:1236   */\n    tag_11:\n        /* \"#utility.yul\":1036:1040   */\n      0x00\n        /* \"#utility.yul\":1074:1076   */\n      0x20\n        /* \"#utility.yul\":1063:1072   */\n      dup3\n        /* \"#utility.yul\":1059:1077   */\n      add\n        /* \"#utility.yul\":1051:1077   */\n      swap1\n      pop\n        /* \"#utility.yul\":1123:1132   */\n      dup2\n        /* \"#utility.yul\":1117:1121   */\n      dup2\n        /* \"#utility.yul\":1113:1133   */\n      sub\n        /* \"#utility.yul\":1109:1110   */\n      0x00\n        /* \"#utility.yul\":1098:1107   */\n      dup4\n        /* \"#utility.yul\":1094:1111   */\n      add\n        /* \"#utility.yul\":1087:1134   */\n      mstore\n        /* \"#utility.yul\":1151:1229   */\n      tag_120\n        /* \"#utility.yul\":1224:1228   */\n      dup2\n        /* \"#utility.yul\":1215:1221   */\n      dup5\n        /* \"#utility.yul\":1151:1229   */\n      tag_75\n      jump\t// in\n    tag_120:\n        /* \"#utility.yul\":1143:1229   */\n      swap1\n      pop\n        /* \"#utility.yul\":923:1236   */\n      swap3\n      swap2\n      pop\n      pop\n      jump\t// out\n        /* \"#utility.yul\":1242:1401   */\n    tag_76:\n        /* \"#utility.yul\":1316:1327   */\n      0x00\n        /* \"#utility.yul\":1350:1356   */\n      dup3\n        /* \"#utility.yul\":1345:1348   */\n      dup3\n        /* \"#utility.yul\":1338:1357   */\n      mstore\n        /* \"#utility.yul\":1390:1394   */\n      0x20\n        /* \"#utility.yul\":1385:1388   */\n      dup3\n        /* \"#utility.yul\":1381:1395   */\n      add\n        /* \"#utility.yul\":1366:1395   */\n      swap1\n      pop\n        /* \"#utility.yul\":1242:1401   */\n      swap3\n      swap2\n      pop\n      pop\n      jump\t// out\n        /* \"#utility.yul\":1407:1764   */\n    tag_77:\n        /* \"#utility.yul\":1485:1488   */\n      0x00\n        /* \"#utility.yul\":1513:1552   */\n      tag_123\n        /* \"#utility.yul\":1546:1551   */\n      dup3\n        /* \"#utility.yul\":1513:1552   */\n      tag_71\n      jump\t// in\n    tag_123:\n        /* \"#utility.yul\":1568:1629   */\n      tag_124\n        /* \"#utility.yul\":1622:1628   */\n      dup2\n        /* \"#utility.yul\":1617:1620   */\n      dup6\n        /* \"#utility.yul\":1568:1629   */\n      tag_76\n      jump\t// in\n    tag_124:\n        /* \"#utility.yul\":1561:1629   */\n      swap4\n      pop\n        /* \"#utility.yul\":1638:1703   */\n      tag_125\n        /* \"#utility.yul\":1696:1702   */\n      dup2\n        /* \"#utility.yul\":1691:1694   */\n      dup6\n        /* \"#utility.yul\":1684:1688   */\n      0x20\n        /* \"#utility.yul\":1677:1682   */\n      dup7\n        /* \"#utility.yul\":1673:1689   */\n      add\n        /* \"#utility.yul\":1638:1703   */\n      tag_73\n      jump\t// in\n    tag_125:\n        /* \"#utility.yul\":1728:1757   */\n      tag_126\n        /* \"#utility.yul\":1750:1756   */\n      dup2\n        /* \"#utility.yul\":1728:1757   */\n      tag_74\n      jump\t// in\n    tag_126:\n        /* \"#utility.yul\":1723:1726   */\n      dup5\n        /* \"#utility.yul\":1719:1758   */\n      add\n        /* \"#utility.yul\":1712:1758   */\n      swap2\n      pop\n        /* \"#utility.yul\":1489:1764   */\n      pop\n        /* \"#utility.yul\":1407:1764   */\n      swap3\n      swap2\n      pop\n      pop\n      jump\t// out\n        /* \"#utility.yul\":1820:2489   */\n    tag_78:\n        /* \"#utility.yul\":1929:1932   */\n      0x00\n        /* \"#utility.yul\":1965:1969   */\n      0x40\n        /* \"#utility.yul\":1960:1963   */\n      dup4\n        /* \"#utility.yul\":1956:1970   */\n      add\n        /* \"#utility.yul\":2052:2056   */\n      0x00\n        /* \"#utility.yul\":2045:2050   */\n      dup4\n        /* \"#utility.yul\":2041:2057   */\n      add\n        /* \"#utility.yul\":2035:2058   */\n      mload\n        /* \"#utility.yul\":2105:2108   */\n      dup5\n        /* \"#utility.yul\":2099:2103   */\n      dup3\n        /* \"#utility.yul\":2095:2109   */\n      sub\n        /* \"#utility.yul\":2088:2092   */\n      0x00\n        /* \"#utility.yul\":2083:2086   */\n      dup7\n        /* \"#utility.yul\":2079:2093   */\n      add\n        /* \"#utility.yul\":2072:2110   */\n      mstore\n        /* \"#utility.yul\":2131:2204   */\n      tag_128\n        /* \"#utility.yul\":2199:2203   */\n      dup3\n        /* \"#utility.yul\":2185:2197   */\n      dup3\n        /* \"#utility.yul\":2131:2204   */\n      tag_77\n      jump\t// in\n    tag_128:\n        /* \"#utility.yul\":2123:2204   */\n      swap2\n      pop\n        /* \"#utility.yul\":1980:2215   */\n      pop\n        /* \"#utility.yul\":2299:2303   */\n      0x20\n        /* \"#utility.yul\":2292:2297   */\n      dup4\n        /* \"#utility.yul\":2288:2304   */\n      add\n        /* \"#utility.yul\":2282:2305   */\n      mload\n        /* \"#utility.yul\":2352:2355   */\n      dup5\n        /* \"#utility.yul\":2346:2350   */\n      dup3\n        /* \"#utility.yul\":2342:2356   */\n      sub\n        /* \"#utility.yul\":2335:2339   */\n      0x20\n        /* \"#utility.yul\":2330:2333   */\n      dup7\n        /* \"#utility.yul\":2326:2340   */\n      add\n        /* \"#utility.yul\":2319:2357   */\n      mstore\n        /* \"#utility.yul\":2378:2451   */\n      tag_129\n        /* \"#utility.yul\":2446:2450   */\n      dup3\n        /* \"#utility.yul\":2432:2444   */\n      dup3\n        /* \"#utility.yul\":2378:2451   */\n      tag_77\n      jump\t// in\n    tag_129:\n        /* \"#utility.yul\":2370:2451   */\n      swap2\n      pop\n        /* \"#utility.yul\":2225:2462   */\n      pop\n        /* \"#utility.yul\":2479:2483   */\n      dup1\n        /* \"#utility.yul\":2472:2483   */\n      swap2\n      pop\n        /* \"#utility.yul\":1934:2489   */\n      pop\n        /* \"#utility.yul\":1820:2489   */\n      swap3\n      swap2\n      pop\n      pop\n      jump\t// out\n        /* \"#utility.yul\":2495:2848   */\n    tag_15:\n        /* \"#utility.yul\":2628:2632   */\n      0x00\n        /* \"#utility.yul\":2666:2668   */\n      0x20\n        /* \"#utility.yul\":2655:2664   */\n      dup3\n        /* \"#utility.yul\":2651:2669   */\n      add\n        /* \"#utility.yul\":2643:2669   */\n      swap1\n      pop\n        /* \"#utility.yul\":2715:2724   */\n      dup2\n        /* \"#utility.yul\":2709:2713   */\n      dup2\n        /* \"#utility.yul\":2705:2725   */\n      sub\n        /* \"#utility.yul\":2701:2702   */\n      0x00\n        /* \"#utility.yul\":2690:2699   */\n      dup4\n        /* \"#utility.yul\":2686:2703   */\n      add\n        /* \"#utility.yul\":2679:2726   */\n      mstore\n        /* \"#utility.yul\":2743:2841   */\n      tag_131\n        /* \"#utility.yul\":2836:2840   */\n      dup2\n        /* \"#utility.yul\":2827:2833   */\n      dup5\n        /* \"#utility.yul\":2743:2841   */\n      tag_78\n      jump\t// in\n    tag_131:\n        /* \"#utility.yul\":2735:2841   */\n      swap1\n      pop\n        /* \"#utility.yul\":2495:2848   */\n      swap3\n      swap2\n      pop\n      pop\n      jump\t// out\n        /* \"#utility.yul\":2935:3052   */\n    tag_80:\n        /* \"#utility.yul\":3044:3045   */\n      0x00\n        /* \"#utility.yul\":3041:3042   */\n      dup1\n        /* \"#utility.yul\":3034:3046   */\n      revert\n        /* \"#utility.yul\":3058:3175   */\n    tag_81:\n        /* \"#utility.yul\":3167:3168   */\n      0x00\n        /* \"#utility.yul\":3164:3165   */\n      dup1\n        /* \"#utility.yul\":3157:3169   */\n      revert\n        /* \"#utility.yul\":3181:3258   */\n    tag_82:\n        /* \"#utility.yul\":3218:3225   */\n      0x00\n        /* \"#utility.yul\":3247:3252   */\n      dup2\n        /* \"#utility.yul\":3236:3252   */\n      swap1\n      pop\n        /* \"#utility.yul\":3181:3258   */\n      swap2\n      swap1\n      pop\n      jump\t// out\n        /* \"#utility.yul\":3264:3386   */\n    tag_83:\n        /* \"#utility.yul\":3337:3361   */\n      tag_137\n        /* \"#utility.yul\":3355:3360   */\n      dup2\n        /* \"#utility.yul\":3337:3361   */\n      tag_82\n      jump\t// in\n    tag_137:\n        /* \"#utility.yul\":3330:3335   */\n      dup2\n        /* \"#utility.yul\":3327:3362   */\n      eq\n        /* \"#utility.yul\":3317:3380   */\n      tag_138\n      jumpi\n        /* \"#utility.yul\":3376:3377   */\n      0x00\n        /* \"#utility.yul\":3373:3374   */\n      dup1\n        /* \"#utility.yul\":3366:3378   */\n      revert\n        /* \"#utility.yul\":3317:3380   */\n    tag_138:\n        /* \"#utility.yul\":3264:3386   */\n      pop\n      jump\t// out\n        /* \"#utility.yul\":3392:3531   */\n    tag_84:\n        /* \"#utility.yul\":3438:3443   */\n      0x00\n        /* \"#utility.yul\":3476:3482   */\n      dup2\n        /* \"#utility.yul\":3463:3483   */\n      calldataload\n        /* \"#utility.yul\":3454:3483   */\n      swap1\n      pop\n        /* \"#utility.yul\":3492:3525   */\n      tag_140\n        /* \"#utility.yul\":3519:3524   */\n      dup2\n        /* \"#utility.yul\":3492:3525   */\n      tag_83\n      jump\t// in\n    tag_140:\n        /* \"#utility.yul\":3392:3531   */\n      swap3\n      swap2\n      pop\n      pop\n      jump\t// out\n        /* \"#utility.yul\":3537:3866   */\n    tag_18:\n        /* \"#utility.yul\":3596:3602   */\n      0x00\n        /* \"#utility.yul\":3645:3647   */\n      0x20\n        /* \"#utility.yul\":3633:3642   */\n      dup3\n        /* \"#utility.yul\":3624:3631   */\n      dup5\n        /* \"#utility.yul\":3620:3643   */\n      sub\n        /* \"#utility.yul\":3616:3648   */\n      slt\n        /* \"#utility.yul\":3613:3732   */\n      iszero\n      tag_142\n      jumpi\n        /* \"#utility.yul\":3651:3730   */\n      tag_143\n      tag_80\n      jump\t// in\n    tag_143:\n        /* \"#utility.yul\":3613:3732   */\n    tag_142:\n        /* \"#utility.yul\":3771:3772   */\n      0x00\n        /* \"#utility.yul\":3796:3849   */\n      tag_144\n        /* \"#utility.yul\":3841:3848   */\n      dup5\n        /* \"#utility.yul\":3832:3838   */\n      dup3\n        /* \"#utility.yul\":3821:3830   */\n      dup6\n        /* \"#utility.yul\":3817:3839   */\n      add\n        /* \"#utility.yul\":3796:3849   */\n      tag_84\n      jump\t// in\n    tag_144:\n        /* \"#utility.yul\":3786:3849   */\n      swap2\n      pop\n        /* \"#utility.yul\":3742:3859   */\n      pop\n        /* \"#utility.yul\":3537:3866   */\n      swap3\n      swap2\n      pop\n      pop\n      jump\t// out\n        /* \"#utility.yul\":3872:4386   */\n    tag_23:\n        /* \"#utility.yul\":4033:4037   */\n      0x00\n        /* \"#utility.yul\":4071:4073   */\n      0x40\n        /* \"#utility.yul\":4060:4069   */\n      dup3\n        /* \"#utility.yul\":4056:4074   */\n      add\n        /* \"#utility.yul\":4048:4074   */\n      swap1\n      pop\n        /* \"#utility.yul\":4120:4129   */\n      dup2\n        /* \"#utility.yul\":4114:4118   */\n      dup2\n        /* \"#utility.yul\":4110:4130   */\n      sub\n        /* \"#utility.yul\":4106:4107   */\n      0x00\n        /* \"#utility.yul\":4095:4104   */\n      dup4\n        /* \"#utility.yul\":4091:4108   */\n      add\n        /* \"#utility.yul\":4084:4131   */\n      mstore\n        /* \"#utility.yul\":4148:4226   */\n      tag_146\n        /* \"#utility.yul\":4221:4225   */\n      dup2\n        /* \"#utility.yul\":4212:4218   */\n      dup6\n        /* \"#utility.yul\":4148:4226   */\n      tag_75\n      jump\t// in\n    tag_146:\n        /* \"#utility.yul\":4140:4226   */\n      swap1\n      pop\n        /* \"#utility.yul\":4273:4282   */\n      dup2\n        /* \"#utility.yul\":4267:4271   */\n      dup2\n        /* \"#utility.yul\":4263:4283   */\n      sub\n        /* \"#utility.yul\":4258:4260   */\n      0x20\n        /* \"#utility.yul\":4247:4256   */\n      dup4\n        /* \"#utility.yul\":4243:4261   */\n      add\n        /* \"#utility.yul\":4236:4284   */\n      mstore\n        /* \"#utility.yul\":4301:4379   */\n      tag_147\n        /* \"#utility.yul\":4374:4378   */\n      dup2\n        /* \"#utility.yul\":4365:4371   */\n      dup5\n        /* \"#utility.yul\":4301:4379   */\n      tag_75\n      jump\t// in\n    tag_147:\n        /* \"#utility.yul\":4293:4379   */\n      swap1\n      pop\n        /* \"#utility.yul\":3872:4386   */\n      swap4\n      swap3\n      pop\n      pop\n      pop\n      jump\t// out\n        /* \"#utility.yul\":4392:4509   */\n    tag_85:\n        /* \"#utility.yul\":4501:4502   */\n      0x00\n        /* \"#utility.yul\":4498:4499   */\n      dup1\n        /* \"#utility.yul\":4491:4503   */\n      revert\n        /* \"#utility.yul\":4515:4632   */\n    tag_86:\n        /* \"#utility.yul\":4624:4625   */\n      0x00\n        /* \"#utility.yul\":4621:4622   */\n      dup1\n        /* \"#utility.yul\":4614:4626   */\n      revert\n        /* \"#utility.yul\":4638:4755   */\n    tag_87:\n        /* \"#utility.yul\":4747:4748   */\n      0x00\n        /* \"#utility.yul\":4744:4745   */\n      dup1\n        /* \"#utility.yul\":4737:4749   */\n      revert\n        /* \"#utility.yul\":4775:5328   */\n    tag_88:\n        /* \"#utility.yul\":4833:4841   */\n      0x00\n        /* \"#utility.yul\":4843:4849   */\n      dup1\n        /* \"#utility.yul\":4893:4896   */\n      dup4\n        /* \"#utility.yul\":4886:4890   */\n      0x1f\n        /* \"#utility.yul\":4878:4884   */\n      dup5\n        /* \"#utility.yul\":4874:4891   */\n      add\n        /* \"#utility.yul\":4870:4897   */\n      slt\n        /* \"#utility.yul\":4860:4982   */\n      tag_152\n      jumpi\n        /* \"#utility.yul\":4901:4980   */\n      tag_153\n      tag_85\n      jump\t// in\n    tag_153:\n        /* \"#utility.yul\":4860:4982   */\n    tag_152:\n        /* \"#utility.yul\":5014:5020   */\n      dup3\n        /* \"#utility.yul\":5001:5021   */\n      calldataload\n        /* \"#utility.yul\":4991:5021   */\n      swap1\n      pop\n        /* \"#utility.yul\":5044:5062   */\n      0xffffffffffffffff\n        /* \"#utility.yul\":5036:5042   */\n      dup2\n        /* \"#utility.yul\":5033:5063   */\n      gt\n        /* \"#utility.yul\":5030:5147   */\n      iszero\n      tag_154\n      jumpi\n        /* \"#utility.yul\":5066:5145   */\n      tag_155\n      tag_86\n      jump\t// in\n    tag_155:\n        /* \"#utility.yul\":5030:5147   */\n    tag_154:\n        /* \"#utility.yul\":5180:5184   */\n      0x20\n        /* \"#utility.yul\":5172:5178   */\n      dup4\n        /* \"#utility.yul\":5168:5185   */\n      add\n        /* \"#utility.yul\":5156:5185   */\n      swap2\n      pop\n        /* \"#utility.yul\":5234:5237   */\n      dup4\n        /* \"#utility.yul\":5226:5230   */\n      0x01\n        /* \"#utility.yul\":5218:5224   */\n      dup3\n        /* \"#utility.yul\":5214:5231   */\n      mul\n        /* \"#utility.yul\":5204:5212   */\n      dup4\n        /* \"#utility.yul\":5200:5232   */\n      add\n        /* \"#utility.yul\":5197:5238   */\n      gt\n        /* \"#utility.yul\":5194:5322   */\n      iszero\n      tag_156\n      jumpi\n        /* \"#utility.yul\":5241:5320   */\n      tag_157\n      tag_87\n      jump\t// in\n    tag_157:\n        /* \"#utility.yul\":5194:5322   */\n    tag_156:\n        /* \"#utility.yul\":4775:5328   */\n      swap3\n      pop\n      swap3\n      swap1\n      pop\n      jump\t// out\n        /* \"#utility.yul\":5334:6208   */\n    tag_26:\n        /* \"#utility.yul\":5426:5432   */\n      0x00\n        /* \"#utility.yul\":5434:5440   */\n      dup1\n        /* \"#utility.yul\":5442:5448   */\n      0x00\n        /* \"#utility.yul\":5450:5456   */\n      dup1\n        /* \"#utility.yul\":5499:5501   */\n      0x40\n        /* \"#utility.yul\":5487:5496   */\n      dup6\n        /* \"#utility.yul\":5478:5485   */\n      dup8\n        /* \"#utility.yul\":5474:5497   */\n      sub\n        /* \"#utility.yul\":5470:5502   */\n      slt\n        /* \"#utility.yul\":5467:5586   */\n      iszero\n      tag_159\n      jumpi\n        /* \"#utility.yul\":5505:5584   */\n      tag_160\n      tag_80\n      jump\t// in\n    tag_160:\n        /* \"#utility.yul\":5467:5586   */\n    tag_159:\n        /* \"#utility.yul\":5653:5654   */\n      0x00\n        /* \"#utility.yul\":5642:5651   */\n      dup6\n        /* \"#utility.yul\":5638:5655   */\n      add\n        /* \"#utility.yul\":5625:5656   */\n      calldataload\n        /* \"#utility.yul\":5683:5701   */\n      0xffffffffffffffff\n        /* \"#utility.yul\":5675:5681   */\n      dup2\n        /* \"#utility.yul\":5672:5702   */\n      gt\n        /* \"#utility.yul\":5669:5786   */\n      iszero\n      tag_161\n      jumpi\n        /* \"#utility.yul\":5705:5784   */\n      tag_162\n      tag_81\n      jump\t// in\n    tag_162:\n        /* \"#utility.yul\":5669:5786   */\n    tag_161:\n        /* \"#utility.yul\":5818:5883   */\n      tag_163\n        /* \"#utility.yul\":5875:5882   */\n      dup8\n        /* \"#utility.yul\":5866:5872   */\n      dup3\n        /* \"#utility.yul\":5855:5864   */\n      dup9\n        /* \"#utility.yul\":5851:5873   */\n      add\n        /* \"#utility.yul\":5818:5883   */\n      tag_88\n      jump\t// in\n    tag_163:\n        /* \"#utility.yul\":5800:5883   */\n      swap5\n      pop\n      swap5\n      pop\n        /* \"#utility.yul\":5596:5893   */\n      pop\n        /* \"#utility.yul\":5960:5962   */\n      0x20\n        /* \"#utility.yul\":5949:5958   */\n      dup6\n        /* \"#utility.yul\":5945:5963   */\n      add\n        /* \"#utility.yul\":5932:5964   */\n      calldataload\n        /* \"#utility.yul\":5991:6009   */\n      0xffffffffffffffff\n        /* \"#utility.yul\":5983:5989   */\n      dup2\n        /* \"#utility.yul\":5980:6010   */\n      gt\n        /* \"#utility.yul\":5977:6094   */\n      iszero\n      tag_164\n      jumpi\n        /* \"#utility.yul\":6013:6092   */\n      tag_165\n      tag_81\n      jump\t// in\n    tag_165:\n        /* \"#utility.yul\":5977:6094   */\n    tag_164:\n        /* \"#utility.yul\":6126:6191   */\n      tag_166\n        /* \"#utility.yul\":6183:6190   */\n      dup8\n        /* \"#utility.yul\":6174:6180   */\n      dup3\n        /* \"#utility.yul\":6163:6172   */\n      dup9\n        /* \"#utility.yul\":6159:6181   */\n      add\n        /* \"#utility.yul\":6126:6191   */\n      tag_88\n      jump\t// in\n    tag_166:\n        /* \"#utility.yul\":6108:6191   */\n      swap3\n      pop\n      swap3\n      pop\n        /* \"#utility.yul\":5903:6201   */\n      pop\n        /* \"#utility.yul\":5334:6208   */\n      swap3\n      swap6\n      swap2\n      swap5\n      pop\n      swap3\n      pop\n      jump\t// out\n        /* \"#utility.yul\":6214:6394   */\n    tag_89:\n        /* \"#utility.yul\":6262:6339   */\n      0x4e487b7100000000000000000000000000000000000000000000000000000000\n        /* \"#utility.yul\":6259:6260   */\n      0x00\n        /* \"#utility.yul\":6252:6340   */\n      mstore\n        /* \"#utility.yul\":6359:6363   */\n      0x22\n        /* \"#utility.yul\":6356:6357   */\n      0x04\n        /* \"#utility.yul\":6349:6364   */\n      mstore\n        /* \"#utility.yul\":6383:6387   */\n      0x24\n        /* \"#utility.yul\":6380:6381   */\n      0x00\n        /* \"#utility.yul\":6373:6388   */\n      revert\n        /* \"#utility.yul\":6400:6720   */\n    tag_30:\n        /* \"#utility.yul\":6444:6450   */\n      0x00\n        /* \"#utility.yul\":6481:6482   */\n      0x02\n        /* \"#utility.yul\":6475:6479   */\n      dup3\n        /* \"#utility.yul\":6471:6483   */\n      div\n        /* \"#utility.yul\":6461:6483   */\n      swap1\n      pop\n        /* \"#utility.yul\":6528:6529   */\n      0x01\n        /* \"#utility.yul\":6522:6526   */\n      dup3\n        /* \"#utility.yul\":6518:6530   */\n      and\n        /* \"#utility.yul\":6549:6567   */\n      dup1\n        /* \"#utility.yul\":6539:6620   */\n      tag_169\n      jumpi\n        /* \"#utility.yul\":6605:6609   */\n      0x7f\n        /* \"#utility.yul\":6597:6603   */\n      dup3\n        /* \"#utility.yul\":6593:6610   */\n      and\n        /* \"#utility.yul\":6583:6610   */\n      swap2\n      pop\n        /* \"#utility.yul\":6539:6620   */\n    tag_169:\n        /* \"#utility.yul\":6667:6669   */\n      0x20\n        /* \"#utility.yul\":6659:6665   */\n      dup3\n        /* \"#utility.yul\":6656:6670   */\n      lt\n        /* \"#utility.yul\":6636:6654   */\n      dup2\n        /* \"#utility.yul\":6633:6671   */\n      sub\n        /* \"#utility.yul\":6630:6714   */\n      tag_170\n      jumpi\n        /* \"#utility.yul\":6686:6704   */\n      tag_171\n      tag_89\n      jump\t// in\n    tag_171:\n        /* \"#utility.yul\":6630:6714   */\n    tag_170:\n        /* \"#utility.yul\":6451:6720   */\n      pop\n        /* \"#utility.yul\":6400:6720   */\n      swap2\n      swap1\n      pop\n      jump\t// out\n        /* \"#utility.yul\":6726:6956   */\n    tag_90:\n        /* \"#utility.yul\":6866:6900   */\n      0x706572736f6e20696e7075742076616c7565206572726f722c20697420697320\n        /* \"#utility.yul\":6862:6863   */\n      0x00\n        /* \"#utility.yul\":6854:6860   */\n      dup3\n        /* \"#utility.yul\":6850:6864   */\n      add\n        /* \"#utility.yul\":6843:6901   */\n      mstore\n        /* \"#utility.yul\":6935:6948   */\n      0x6f6e6c792030206f722031000000000000000000000000000000000000000000\n        /* \"#utility.yul\":6930:6932   */\n      0x20\n        /* \"#utility.yul\":6922:6928   */\n      dup3\n        /* \"#utility.yul\":6918:6933   */\n      add\n        /* \"#utility.yul\":6911:6949   */\n      mstore\n        /* \"#utility.yul\":6726:6956   */\n      pop\n      jump\t// out\n        /* \"#utility.yul\":6962:7328   */\n    tag_91:\n        /* \"#utility.yul\":7104:7107   */\n      0x00\n        /* \"#utility.yul\":7125:7192   */\n      tag_174\n        /* \"#utility.yul\":7189:7191   */\n      0x2b\n        /* \"#utility.yul\":7184:7187   */\n      dup4\n        /* \"#utility.yul\":7125:7192   */\n      tag_72\n      jump\t// in\n    tag_174:\n        /* \"#utility.yul\":7118:7192   */\n      swap2\n      pop\n        /* \"#utility.yul\":7201:7294   */\n      tag_175\n        /* \"#utility.yul\":7290:7293   */\n      dup3\n        /* \"#utility.yul\":7201:7294   */\n      tag_90\n      jump\t// in\n    tag_175:\n        /* \"#utility.yul\":7319:7321   */\n      0x40\n        /* \"#utility.yul\":7314:7317   */\n      dup3\n        /* \"#utility.yul\":7310:7322   */\n      add\n        /* \"#utility.yul\":7303:7322   */\n      swap1\n      pop\n        /* \"#utility.yul\":6962:7328   */\n      swap2\n      swap1\n      pop\n      jump\t// out\n        /* \"#utility.yul\":7334:7753   */\n    tag_52:\n        /* \"#utility.yul\":7500:7504   */\n      0x00\n        /* \"#utility.yul\":7538:7540   */\n      0x20\n        /* \"#utility.yul\":7527:7536   */\n      dup3\n        /* \"#utility.yul\":7523:7541   */\n      add\n        /* \"#utility.yul\":7515:7541   */\n      swap1\n      pop\n        /* \"#utility.yul\":7587:7596   */\n      dup2\n        /* \"#utility.yul\":7581:7585   */\n      dup2\n        /* \"#utility.yul\":7577:7597   */\n      sub\n        /* \"#utility.yul\":7573:7574   */\n      0x00\n        /* \"#utility.yul\":7562:7571   */\n      dup4\n        /* \"#utility.yul\":7558:7575   */\n      add\n        /* \"#utility.yul\":7551:7598   */\n      mstore\n        /* \"#utility.yul\":7615:7746   */\n      tag_177\n        /* \"#utility.yul\":7741:7745   */\n      dup2\n        /* \"#utility.yul\":7615:7746   */\n      tag_91\n      jump\t// in\n    tag_177:\n        /* \"#utility.yul\":7607:7746   */\n      swap1\n      pop\n        /* \"#utility.yul\":7334:7753   */\n      swap2\n      swap1\n      pop\n      jump\t// out\n        /* \"#utility.yul\":7759:7939   */\n    tag_92:\n        /* \"#utility.yul\":7807:7884   */\n      0x4e487b7100000000000000000000000000000000000000000000000000000000\n        /* \"#utility.yul\":7804:7805   */\n      0x00\n        /* \"#utility.yul\":7797:7885   */\n      mstore\n        /* \"#utility.yul\":7904:7908   */\n      0x41\n        /* \"#utility.yul\":7901:7902   */\n      0x04\n        /* \"#utility.yul\":7894:7909   */\n      mstore\n        /* \"#utility.yul\":7928:7932   */\n      0x24\n        /* \"#utility.yul\":7925:7926   */\n      0x00\n        /* \"#utility.yul\":7918:7933   */\n      revert\n        /* \"#utility.yul\":7945:8086   */\n    tag_93:\n        /* \"#utility.yul\":7994:7998   */\n      0x00\n        /* \"#utility.yul\":8017:8020   */\n      dup2\n        /* \"#utility.yul\":8009:8020   */\n      swap1\n      pop\n        /* \"#utility.yul\":8040:8043   */\n      dup2\n        /* \"#utility.yul\":8037:8038   */\n      0x00\n        /* \"#utility.yul\":8030:8044   */\n      mstore\n        /* \"#utility.yul\":8074:8078   */\n      0x20\n        /* \"#utility.yul\":8071:8072   */\n      0x00\n        /* \"#utility.yul\":8061:8079   */\n      keccak256\n        /* \"#utility.yul\":8053:8079   */\n      swap1\n      pop\n        /* \"#utility.yul\":7945:8086   */\n      swap2\n      swap1\n      pop\n      jump\t// out\n        /* \"#utility.yul\":8092:8185   */\n    tag_94:\n        /* \"#utility.yul\":8129:8135   */\n      0x00\n        /* \"#utility.yul\":8176:8178   */\n      0x20\n        /* \"#utility.yul\":8171:8173   */\n      0x1f\n        /* \"#utility.yul\":8164:8169   */\n      dup4\n        /* \"#utility.yul\":8160:8174   */\n      add\n        /* \"#utility.yul\":8156:8179   */\n      div\n        /* \"#utility.yul\":8146:8179   */\n      swap1\n      pop\n        /* \"#utility.yul\":8092:8185   */\n      swap2\n      swap1\n      pop\n      jump\t// out\n        /* \"#utility.yul\":8191:8298   */\n    tag_95:\n        /* \"#utility.yul\":8235:8243   */\n      0x00\n        /* \"#utility.yul\":8285:8290   */\n      dup3\n        /* \"#utility.yul\":8279:8283   */\n      dup3\n        /* \"#utility.yul\":8275:8291   */\n      shl\n        /* \"#utility.yul\":8254:8291   */\n      swap1\n      pop\n        /* \"#utility.yul\":8191:8298   */\n      swap3\n      swap2\n      pop\n      pop\n      jump\t// out\n        /* \"#utility.yul\":8304:8697   */\n    tag_96:\n        /* \"#utility.yul\":8373:8379   */\n      0x00\n        /* \"#utility.yul\":8423:8424   */\n      0x08\n        /* \"#utility.yul\":8411:8421   */\n      dup4\n        /* \"#utility.yul\":8407:8425   */\n      mul\n        /* \"#utility.yul\":8446:8543   */\n      tag_183\n        /* \"#utility.yul\":8476:8542   */\n      0xffffffffffffffffffffffffffffffffffffffffffffffffffffffffffffffff\n        /* \"#utility.yul\":8465:8474   */\n      dup3\n        /* \"#utility.yul\":8446:8543   */\n      tag_95\n      jump\t// in\n    tag_183:\n        /* \"#utility.yul\":8564:8603   */\n      tag_184\n        /* \"#utility.yul\":8594:8602   */\n      dup7\n        /* \"#utility.yul\":8583:8592   */\n      dup4\n        /* \"#utility.yul\":8564:8603   */\n      tag_95\n      jump\t// in\n    tag_184:\n        /* \"#utility.yul\":8552:8603   */\n      swap6\n      pop\n        /* \"#utility.yul\":8636:8640   */\n      dup1\n        /* \"#utility.yul\":8632:8641   */\n      not\n        /* \"#utility.yul\":8625:8630   */\n      dup5\n        /* \"#utility.yul\":8621:8642   */\n      and\n        /* \"#utility.yul\":8612:8642   */\n      swap4\n      pop\n        /* \"#utility.yul\":8685:8689   */\n      dup1\n        /* \"#utility.yul\":8675:8683   */\n      dup7\n        /* \"#utility.yul\":8671:8690   */\n      and\n        /* \"#utility.yul\":8664:8669   */\n      dup5\n        /* \"#utility.yul\":8661:8691   */\n      or\n        /* \"#utility.yul\":8651:8691   */\n      swap3\n      pop\n        /* \"#utility.yul\":8380:8697   */\n      pop\n      pop\n        /* \"#utility.yul\":8304:8697   */\n      swap4\n      swap3\n      pop\n      pop\n      pop\n      jump\t// out\n        /* \"#utility.yul\":8703:8763   */\n    tag_97:\n        /* \"#utility.yul\":8731:8734   */\n      0x00\n        /* \"#utility.yul\":8752:8757   */\n      dup2\n        /* \"#utility.yul\":8745:8757   */\n      swap1\n      pop\n        /* \"#utility.yul\":8703:8763   */\n      swap2\n      swap1\n      pop\n      jump\t// out\n        /* \"#utility.yul\":8769:8911   */\n    tag_98:\n        /* \"#utility.yul\":8819:8828   */\n      0x00\n        /* \"#utility.yul\":8852:8905   */\n      tag_187\n        /* \"#utility.yul\":8870:8904   */\n      tag_188\n        /* \"#utility.yul\":8879:8903   */\n      tag_189\n        /* \"#utility.yul\":8897:8902   */\n      dup5\n        /* \"#utility.yul\":8879:8903   */\n      tag_82\n      jump\t// in\n    tag_189:\n        /* \"#utility.yul\":8870:8904   */\n      tag_97\n      jump\t// in\n    tag_188:\n        /* \"#utility.yul\":8852:8905   */\n      tag_82\n      jump\t// in\n    tag_187:\n        /* \"#utility.yul\":8839:8905   */\n      swap1\n      pop\n        /* \"#utility.yul\":8769:8911   */\n      swap2\n      swap1\n      pop\n      jump\t// out\n        /* \"#utility.yul\":8917:8992   */\n    tag_99:\n        /* \"#utility.yul\":8960:8963   */\n      0x00\n        /* \"#utility.yul\":8981:8986   */\n      dup2\n        /* \"#utility.yul\":8974:8986   */\n      swap1\n      pop\n        /* \"#utility.yul\":8917:8992   */\n      swap2\n      swap1\n      pop\n      jump\t// out\n        /* \"#utility.yul\":8998:9267   */\n    tag_100:\n        /* \"#utility.yul\":9108:9147   */\n      tag_192\n        /* \"#utility.yul\":9139:9146   */\n      dup4\n        /* \"#utility.yul\":9108:9147   */\n      tag_98\n      jump\t// in\n    tag_192:\n        /* \"#utility.yul\":9169:9260   */\n      tag_193\n        /* \"#utility.yul\":9218:9259   */\n      tag_194\n        /* \"#utility.yul\":9242:9258   */\n      dup3\n        /* \"#utility.yul\":9218:9259   */\n      tag_99\n      jump\t// in\n    tag_194:\n        /* \"#utility.yul\":9210:9216   */\n      dup5\n        /* \"#utility.yul\":9203:9207   */\n      dup5\n        /* \"#utility.yul\":9197:9208   */\n      sload\n        /* \"#utility.yul\":9169:9260   */\n      tag_96\n      jump\t// in\n    tag_193:\n        /* \"#utility.yul\":9163:9167   */\n      dup3\n        /* \"#utility.yul\":9156:9261   */\n      sstore\n        /* \"#utility.yul\":9074:9267   */\n      pop\n        /* \"#utility.yul\":8998:9267   */\n      pop\n      pop\n      pop\n      jump\t// out\n        /* \"#utility.yul\":9273:9346   */\n    tag_101:\n        /* \"#utility.yul\":9318:9321   */\n      0x00\n        /* \"#utility.yul\":9273:9346   */\n      swap1\n      jump\t// out\n        /* \"#utility.yul\":9352:9541   */\n    tag_102:\n        /* \"#utility.yul\":9429:9461   */\n      tag_197\n      tag_101\n      jump\t// in\n    tag_197:\n        /* \"#utility.yul\":9470:9535   */\n      tag_198\n        /* \"#utility.yul\":9528:9534   */\n      dup2\n        /* \"#utility.yul\":9520:9526   */\n      dup5\n        /* \"#utility.yul\":9514:9518   */\n      dup5\n        /* \"#utility.yul\":9470:9535   */\n      tag_100\n      jump\t// in\n    tag_198:\n        /* \"#utility.yul\":9405:9541   */\n      pop\n        /* \"#utility.yul\":9352:9541   */\n      pop\n      pop\n      jump\t// out\n        /* \"#utility.yul\":9547:9733   */\n    tag_103:\n        /* \"#utility.yul\":9607:9727   */\n    tag_200:\n        /* \"#utility.yul\":9624:9627   */\n      dup2\n        /* \"#utility.yul\":9617:9622   */\n      dup2\n        /* \"#utility.yul\":9614:9628   */\n      lt\n        /* \"#utility.yul\":9607:9727   */\n      iszero\n      tag_202\n      jumpi\n        /* \"#utility.yul\":9678:9717   */\n      tag_203\n        /* \"#utility.yul\":9715:9716   */\n      0x00\n        /* \"#utility.yul\":9708:9713   */\n      dup3\n        /* \"#utility.yul\":9678:9717   */\n      tag_102\n      jump\t// in\n    tag_203:\n        /* \"#utility.yul\":9651:9652   */\n      0x01\n        /* \"#utility.yul\":9644:9649   */\n      dup2\n        /* \"#utility.yul\":9640:9653   */\n      add\n        /* \"#utility.yul\":9631:9653   */\n      swap1\n      pop\n        /* \"#utility.yul\":9607:9727   */\n      jump(tag_200)\n    tag_202:\n        /* \"#utility.yul\":9547:9733   */\n      pop\n      pop\n      jump\t// out\n        /* \"#utility.yul\":9739:10282   */\n    tag_104:\n        /* \"#utility.yul\":9840:9842   */\n      0x1f\n        /* \"#utility.yul\":9835:9838   */\n      dup3\n        /* \"#utility.yul\":9832:9843   */\n      gt\n        /* \"#utility.yul\":9829:10275   */\n      iszero\n      tag_205\n      jumpi\n        /* \"#utility.yul\":9874:9912   */\n      tag_206\n        /* \"#utility.yul\":9906:9911   */\n      dup2\n        /* \"#utility.yul\":9874:9912   */\n      tag_93\n      jump\t// in\n    tag_206:\n        /* \"#utility.yul\":9958:9987   */\n      tag_207\n        /* \"#utility.yul\":9976:9986   */\n      dup5\n        /* \"#utility.yul\":9958:9987   */\n      tag_94\n      jump\t// in\n    tag_207:\n        /* \"#utility.yul\":9948:9956   */\n      dup2\n        /* \"#utility.yul\":9944:9988   */\n      add\n        /* \"#utility.yul\":10141:10143   */\n      0x20\n        /* \"#utility.yul\":10129:10139   */\n      dup6\n        /* \"#utility.yul\":10126:10144   */\n      lt\n        /* \"#utility.yul\":10123:10172   */\n      iszero\n      tag_208\n      jumpi\n        /* \"#utility.yul\":10162:10170   */\n      dup2\n        /* \"#utility.yul\":10147:10170   */\n      swap1\n      pop\n        /* \"#utility.yul\":10123:10172   */\n    tag_208:\n        /* \"#utility.yul\":10185:10265   */\n      tag_209\n        /* \"#utility.yul\":10241:10263   */\n      tag_210\n        /* \"#utility.yul\":10259:10262   */\n      dup6\n        /* \"#utility.yul\":10241:10263   */\n      tag_94\n      jump\t// in\n    tag_210:\n        /* \"#utility.yul\":10231:10239   */\n      dup4\n        /* \"#utility.yul\":10227:10264   */\n      add\n        /* \"#utility.yul\":10214:10225   */\n      dup3\n        /* \"#utility.yul\":10185:10265   */\n      tag_103\n      jump\t// in\n    tag_209:\n        /* \"#utility.yul\":9844:10275   */\n      pop\n      pop\n        /* \"#utility.yul\":9829:10275   */\n    tag_205:\n        /* \"#utility.yul\":9739:10282   */\n      pop\n      pop\n      pop\n      jump\t// out\n        /* \"#utility.yul\":10288:10405   */\n    tag_105:\n        /* \"#utility.yul\":10342:10350   */\n      0x00\n        /* \"#utility.yul\":10392:10397   */\n      dup3\n        /* \"#utility.yul\":10386:10390   */\n      dup3\n        /* \"#utility.yul\":10382:10398   */\n      shr\n        /* \"#utility.yul\":10361:10398   */\n      swap1\n      pop\n        /* \"#utility.yul\":10288:10405   */\n      swap3\n      swap2\n      pop\n      pop\n      jump\t// out\n        /* \"#utility.yul\":10411:10580   */\n    tag_106:\n        /* \"#utility.yul\":10455:10461   */\n      0x00\n        /* \"#utility.yul\":10488:10539   */\n      tag_213\n        /* \"#utility.yul\":10536:10537   */\n      0x00\n        /* \"#utility.yul\":10532:10538   */\n      not\n        /* \"#utility.yul\":10524:10529   */\n      dup5\n        /* \"#utility.yul\":10521:10522   */\n      0x08\n        /* \"#utility.yul\":10517:10530   */\n      mul\n        /* \"#utility.yul\":10488:10539   */\n      tag_105\n      jump\t// in\n    tag_213:\n        /* \"#utility.yul\":10484:10540   */\n      not\n        /* \"#utility.yul\":10569:10573   */\n      dup1\n        /* \"#utility.yul\":10563:10567   */\n      dup4\n        /* \"#utility.yul\":10559:10574   */\n      and\n        /* \"#utility.yul\":10549:10574   */\n      swap2\n      pop\n        /* \"#utility.yul\":10462:10580   */\n      pop\n        /* \"#utility.yul\":10411:10580   */\n      swap3\n      swap2\n      pop\n      pop\n      jump\t// out\n        /* \"#utility.yul\":10585:10880   */\n    tag_107:\n        /* \"#utility.yul\":10661:10665   */\n      0x00\n        /* \"#utility.yul\":10807:10836   */\n      tag_215\n        /* \"#utility.yul\":10832:10835   */\n      dup4\n        /* \"#utility.yul\":10826:10830   */\n      dup4\n        /* \"#utility.yul\":10807:10836   */\n      tag_106\n      jump\t// in\n    tag_215:\n        /* \"#utility.yul\":10799:10836   */\n      swap2\n      pop\n        /* \"#utility.yul\":10869:10872   */\n      dup3\n        /* \"#utility.yul\":10866:10867   */\n      0x02\n        /* \"#utility.yul\":10862:10873   */\n      mul\n        /* \"#utility.yul\":10856:10860   */\n      dup3\n        /* \"#utility.yul\":10853:10874   */\n      or\n        /* \"#utility.yul\":10845:10874   */\n      swap1\n      pop\n        /* \"#utility.yul\":10585:10880   */\n      swap3\n      swap2\n      pop\n      pop\n      jump\t// out\n        /* \"#utility.yul\":10885:12280   */\n    tag_56:\n        /* \"#utility.yul\":11002:11039   */\n      tag_217\n        /* \"#utility.yul\":11035:11038   */\n      dup3\n        /* \"#utility.yul\":11002:11039   */\n      tag_71\n      jump\t// in\n    tag_217:\n        /* \"#utility.yul\":11104:11122   */\n      0xffffffffffffffff\n        /* \"#utility.yul\":11096:11102   */\n      dup2\n        /* \"#utility.yul\":11093:11123   */\n      gt\n        /* \"#utility.yul\":11090:11146   */\n      iszero\n      tag_218\n      jumpi\n        /* \"#utility.yul\":11126:11144   */\n      tag_219\n      tag_92\n      jump\t// in\n    tag_219:\n        /* \"#utility.yul\":11090:11146   */\n    tag_218:\n        /* \"#utility.yul\":11170:11208   */\n      tag_220\n        /* \"#utility.yul\":11202:11206   */\n      dup3\n        /* \"#utility.yul\":11196:11207   */\n      sload\n        /* \"#utility.yul\":11170:11208   */\n      tag_30\n      jump\t// in\n    tag_220:\n        /* \"#utility.yul\":11255:11322   */\n      tag_221\n        /* \"#utility.yul\":11315:11321   */\n      dup3\n        /* \"#utility.yul\":11307:11313   */\n      dup3\n        /* \"#utility.yul\":11301:11305   */\n      dup6\n        /* \"#utility.yul\":11255:11322   */\n      tag_104\n      jump\t// in\n    tag_221:\n        /* \"#utility.yul\":11349:11350   */\n      0x00\n        /* \"#utility.yul\":11373:11377   */\n      0x20\n        /* \"#utility.yul\":11360:11377   */\n      swap1\n      pop\n        /* \"#utility.yul\":11405:11407   */\n      0x1f\n        /* \"#utility.yul\":11397:11403   */\n      dup4\n        /* \"#utility.yul\":11394:11408   */\n      gt\n        /* \"#utility.yul\":11422:11423   */\n      0x01\n        /* \"#utility.yul\":11417:12035   */\n      dup2\n      eq\n      tag_223\n      jumpi\n        /* \"#utility.yul\":12079:12080   */\n      0x00\n        /* \"#utility.yul\":12096:12102   */\n      dup5\n        /* \"#utility.yul\":12093:12170   */\n      iszero\n      tag_224\n      jumpi\n        /* \"#utility.yul\":12145:12154   */\n      dup3\n        /* \"#utility.yul\":12140:12143   */\n      dup8\n        /* \"#utility.yul\":12136:12155   */\n      add\n        /* \"#utility.yul\":12130:12156   */\n      mload\n        /* \"#utility.yul\":12121:12156   */\n      swap1\n      pop\n        /* \"#utility.yul\":12093:12170   */\n    tag_224:\n        /* \"#utility.yul\":12196:12263   */\n      tag_225\n        /* \"#utility.yul\":12256:12262   */\n      dup6\n        /* \"#utility.yul\":12249:12254   */\n      dup3\n        /* \"#utility.yul\":12196:12263   */\n      tag_107\n      jump\t// in\n    tag_225:\n        /* \"#utility.yul\":12190:12194   */\n      dup7\n        /* \"#utility.yul\":12183:12264   */\n      sstore\n        /* \"#utility.yul\":12052:12274   */\n      pop\n        /* \"#utility.yul\":11387:12274   */\n      jump(tag_222)\n        /* \"#utility.yul\":11417:12035   */\n    tag_223:\n        /* \"#utility.yul\":11469:11473   */\n      0x1f\n        /* \"#utility.yul\":11465:11474   */\n      not\n        /* \"#utility.yul\":11457:11463   */\n      dup5\n        /* \"#utility.yul\":11453:11475   */\n      and\n        /* \"#utility.yul\":11503:11540   */\n      tag_226\n        /* \"#utility.yul\":11535:11539   */\n      dup7\n        /* \"#utility.yul\":11503:11540   */\n      tag_93\n      jump\t// in\n    tag_226:\n        /* \"#utility.yul\":11562:11563   */\n      0x00\n        /* \"#utility.yul\":11576:11784   */\n    tag_227:\n        /* \"#utility.yul\":11590:11597   */\n      dup3\n        /* \"#utility.yul\":11587:11588   */\n      dup2\n        /* \"#utility.yul\":11584:11598   */\n      lt\n        /* \"#utility.yul\":11576:11784   */\n      iszero\n      tag_229\n      jumpi\n        /* \"#utility.yul\":11669:11678   */\n      dup5\n        /* \"#utility.yul\":11664:11667   */\n      dup10\n        /* \"#utility.yul\":11660:11679   */\n      add\n        /* \"#utility.yul\":11654:11680   */\n      mload\n        /* \"#utility.yul\":11646:11652   */\n      dup3\n        /* \"#utility.yul\":11639:11681   */\n      sstore\n        /* \"#utility.yul\":11720:11721   */\n      0x01\n        /* \"#utility.yul\":11712:11718   */\n      dup3\n        /* \"#utility.yul\":11708:11722   */\n      add\n        /* \"#utility.yul\":11698:11722   */\n      swap2\n      pop\n        /* \"#utility.yul\":11767:11769   */\n      0x20\n        /* \"#utility.yul\":11756:11765   */\n      dup6\n        /* \"#utility.yul\":11752:11770   */\n      add\n        /* \"#utility.yul\":11739:11770   */\n      swap5\n      pop\n        /* \"#utility.yul\":11613:11617   */\n      0x20\n        /* \"#utility.yul\":11610:11611   */\n      dup2\n        /* \"#utility.yul\":11606:11618   */\n      add\n        /* \"#utility.yul\":11601:11618   */\n      swap1\n      pop\n        /* \"#utility.yul\":11576:11784   */\n      jump(tag_227)\n    tag_229:\n        /* \"#utility.yul\":11812:11818   */\n      dup7\n        /* \"#utility.yul\":11803:11810   */\n      dup4\n        /* \"#utility.yul\":11800:11819   */\n      lt\n        /* \"#utility.yul\":11797:11976   */\n      iszero\n      tag_230\n      jumpi\n        /* \"#utility.yul\":11870:11879   */\n      dup5\n        /* \"#utility.yul\":11865:11868   */\n      dup10\n        /* \"#utility.yul\":11861:11880   */\n      add\n        /* \"#utility.yul\":11855:11881   */\n      mload\n        /* \"#utility.yul\":11913:11961   */\n      tag_231\n        /* \"#utility.yul\":11955:11959   */\n      0x1f\n        /* \"#utility.yul\":11947:11953   */\n      dup10\n        /* \"#utility.yul\":11943:11960   */\n      and\n        /* \"#utility.yul\":11932:11941   */\n      dup3\n        /* \"#utility.yul\":11913:11961   */\n      tag_106\n      jump\t// in\n    tag_231:\n        /* \"#utility.yul\":11905:11911   */\n      dup4\n        /* \"#utility.yul\":11898:11962   */\n      sstore\n        /* \"#utility.yul\":11820:11976   */\n      pop\n        /* \"#utility.yul\":11797:11976   */\n    tag_230:\n        /* \"#utility.yul\":12022:12023   */\n      0x01\n        /* \"#utility.yul\":12018:12019   */\n      0x02\n        /* \"#utility.yul\":12010:12016   */\n      dup9\n        /* \"#utility.yul\":12006:12020   */\n      mul\n        /* \"#utility.yul\":12002:12024   */\n      add\n        /* \"#utility.yul\":11996:12000   */\n      dup9\n        /* \"#utility.yul\":11989:12025   */\n      sstore\n        /* \"#utility.yul\":11424:12035   */\n      pop\n      pop\n      pop\n        /* \"#utility.yul\":11387:12274   */\n    tag_222:\n      pop\n        /* \"#utility.yul\":10977:12280   */\n      pop\n      pop\n      pop\n        /* \"#utility.yul\":10885:12280   */\n      pop\n      pop\n      jump\t// out\n        /* \"#utility.yul\":12286:12383   */\n    tag_108:\n        /* \"#utility.yul\":12345:12351   */\n      0x00\n        /* \"#utility.yul\":12373:12376   */\n      dup3\n        /* \"#utility.yul\":12363:12376   */\n      swap1\n      pop\n        /* \"#utility.yul\":12286:12383   */\n      swap3\n      swap2\n      pop\n      pop\n      jump\t// out\n        /* \"#utility.yul\":12389:13792   */\n    tag_69:\n        /* \"#utility.yul\":12513:12557   */\n      tag_234\n        /* \"#utility.yul\":12553:12556   */\n      dup4\n        /* \"#utility.yul\":12548:12551   */\n      dup4\n        /* \"#utility.yul\":12513:12557   */\n      tag_108\n      jump\t// in\n    tag_234:\n        /* \"#utility.yul\":12622:12640   */\n      0xffffffffffffffff\n        /* \"#utility.yul\":12614:12620   */\n      dup2\n        /* \"#utility.yul\":12611:12641   */\n      gt\n        /* \"#utility.yul\":12608:12664   */\n      iszero\n      tag_235\n      jumpi\n        /* \"#utility.yul\":12644:12662   */\n      tag_236\n      tag_92\n      jump\t// in\n    tag_236:\n        /* \"#utility.yul\":12608:12664   */\n    tag_235:\n        /* \"#utility.yul\":12688:12726   */\n      tag_237\n        /* \"#utility.yul\":12720:12724   */\n      dup3\n        /* \"#utility.yul\":12714:12725   */\n      sload\n        /* \"#utility.yul\":12688:12726   */\n      tag_30\n      jump\t// in\n    tag_237:\n        /* \"#utility.yul\":12773:12840   */\n      tag_238\n        /* \"#utility.yul\":12833:12839   */\n      dup3\n        /* \"#utility.yul\":12825:12831   */\n      dup3\n        /* \"#utility.yul\":12819:12823   */\n      dup6\n        /* \"#utility.yul\":12773:12840   */\n      tag_104\n      jump\t// in\n    tag_238:\n        /* \"#utility.yul\":12867:12868   */\n      0x00\n        /* \"#utility.yul\":12896:12898   */\n      0x1f\n        /* \"#utility.yul\":12888:12894   */\n      dup4\n        /* \"#utility.yul\":12885:12899   */\n      gt\n        /* \"#utility.yul\":12913:12914   */\n      0x01\n        /* \"#utility.yul\":12908:13540   */\n      dup2\n      eq\n      tag_240\n      jumpi\n        /* \"#utility.yul\":13584:13585   */\n      0x00\n        /* \"#utility.yul\":13601:13607   */\n      dup5\n        /* \"#utility.yul\":13598:13682   */\n      iszero\n      tag_241\n      jumpi\n        /* \"#utility.yul\":13657:13666   */\n      dup3\n        /* \"#utility.yul\":13652:13655   */\n      dup8\n        /* \"#utility.yul\":13648:13667   */\n      add\n        /* \"#utility.yul\":13635:13668   */\n      calldataload\n        /* \"#utility.yul\":13626:13668   */\n      swap1\n      pop\n        /* \"#utility.yul\":13598:13682   */\n    tag_241:\n        /* \"#utility.yul\":13708:13775   */\n      tag_242\n        /* \"#utility.yul\":13768:13774   */\n      dup6\n        /* \"#utility.yul\":13761:13766   */\n      dup3\n        /* \"#utility.yul\":13708:13775   */\n      tag_107\n      jump\t// in\n    tag_242:\n        /* \"#utility.yul\":13702:13706   */\n      dup7\n        /* \"#utility.yul\":13695:13776   */\n      sstore\n        /* \"#utility.yul\":13557:13786   */\n      pop\n        /* \"#utility.yul\":12878:13786   */\n      jump(tag_239)\n        /* \"#utility.yul\":12908:13540   */\n    tag_240:\n        /* \"#utility.yul\":12960:12964   */\n      0x1f\n        /* \"#utility.yul\":12956:12965   */\n      not\n        /* \"#utility.yul\":12948:12954   */\n      dup5\n        /* \"#utility.yul\":12944:12966   */\n      and\n        /* \"#utility.yul\":12994:13031   */\n      tag_243\n        /* \"#utility.yul\":13026:13030   */\n      dup7\n        /* \"#utility.yul\":12994:13031   */\n      tag_93\n      jump\t// in\n    tag_243:\n        /* \"#utility.yul\":13053:13054   */\n      0x00\n        /* \"#utility.yul\":13067:13282   */\n    tag_244:\n        /* \"#utility.yul\":13081:13088   */\n      dup3\n        /* \"#utility.yul\":13078:13079   */\n      dup2\n        /* \"#utility.yul\":13075:13089   */\n      lt\n        /* \"#utility.yul\":13067:13282   */\n      iszero\n      tag_246\n      jumpi\n        /* \"#utility.yul\":13167:13176   */\n      dup5\n        /* \"#utility.yul\":13162:13165   */\n      dup10\n        /* \"#utility.yul\":13158:13177   */\n      add\n        /* \"#utility.yul\":13145:13178   */\n      calldataload\n        /* \"#utility.yul\":13137:13143   */\n      dup3\n        /* \"#utility.yul\":13130:13179   */\n      sstore\n        /* \"#utility.yul\":13218:13219   */\n      0x01\n        /* \"#utility.yul\":13210:13216   */\n      dup3\n        /* \"#utility.yul\":13206:13220   */\n      add\n        /* \"#utility.yul\":13196:13220   */\n      swap2\n      pop\n        /* \"#utility.yul\":13265:13267   */\n      0x20\n        /* \"#utility.yul\":13254:13263   */\n      dup6\n        /* \"#utility.yul\":13250:13268   */\n      add\n        /* \"#utility.yul\":13237:13268   */\n      swap5\n      pop\n        /* \"#utility.yul\":13104:13108   */\n      0x20\n        /* \"#utility.yul\":13101:13102   */\n      dup2\n        /* \"#utility.yul\":13097:13109   */\n      add\n        /* \"#utility.yul\":13092:13109   */\n      swap1\n      pop\n        /* \"#utility.yul\":13067:13282   */\n      jump(tag_244)\n    tag_246:\n        /* \"#utility.yul\":13310:13316   */\n      dup7\n        /* \"#utility.yul\":13301:13308   */\n      dup4\n        /* \"#utility.yul\":13298:13317   */\n      lt\n        /* \"#utility.yul\":13295:13481   */\n      iszero\n      tag_247\n      jumpi\n        /* \"#utility.yul\":13375:13384   */\n      dup5\n        /* \"#utility.yul\":13370:13373   */\n      dup10\n        /* \"#utility.yul\":13366:13385   */\n      add\n        /* \"#utility.yul\":13353:13386   */\n      calldataload\n        /* \"#utility.yul\":13418:13466   */\n      tag_248\n        /* \"#utility.yul\":13460:13464   */\n      0x1f\n        /* \"#utility.yul\":13452:13458   */\n      dup10\n        /* \"#utility.yul\":13448:13465   */\n      and\n        /* \"#utility.yul\":13437:13446   */\n      dup3\n        /* \"#utility.yul\":13418:13466   */\n      tag_106\n      jump\t// in\n    tag_248:\n        /* \"#utility.yul\":13410:13416   */\n      dup4\n        /* \"#utility.yul\":13403:13467   */\n      sstore\n        /* \"#utility.yul\":13318:13481   */\n      pop\n        /* \"#utility.yul\":13295:13481   */\n    tag_247:\n        /* \"#utility.yul\":13527:13528   */\n      0x01\n        /* \"#utility.yul\":13523:13524   */\n      0x02\n        /* \"#utility.yul\":13515:13521   */\n      dup9\n        /* \"#utility.yul\":13511:13525   */\n      mul\n        /* \"#utility.yul\":13507:13529   */\n      add\n        /* \"#utility.yul\":13501:13505   */\n      dup9\n        /* \"#utility.yul\":13494:13530   */\n      sstore\n        /* \"#utility.yul\":12915:13540   */\n      pop\n      pop\n      pop\n        /* \"#utility.yul\":12878:13786   */\n    tag_239:\n      pop\n        /* \"#utility.yul\":12488:13792   */\n      pop\n      pop\n      pop\n        /* \"#utility.yul\":12389:13792   */\n      pop\n      pop\n      pop\n      jump\t// out\n\n    auxdata: 0xa26469706673582212202946381b375b7ea50e199898a003cbcc54c0a3800ca926187c0935b701092af164736f6c634300081a0033\n}\n",
				"bytecode": {
					"linkReferences": {},
					"object": "6080604052348015600e575f80fd5b50610c368061001c5f395ff3fe608060405234801561000f575f80fd5b5060043610610055575f3560e01c806317d7de7c146100595780631865c57d14610077578063652296f114610095578063c19d93fb146100b1578063d9038f3c146100d0575b5f80fd5b6100616100ec565b60405161006e9190610562565b60405180910390f35b61007f61017d565b60405161008c919061060b565b60405180910390f35b6100af60048036038101906100aa9190610666565b6102b5565b005b6100b961038f565b6040516100c7929190610691565b60405180910390f35b6100ea60048036038101906100e59190610727565b6104ab565b005b60605f800180546100fc906107d2565b80601f0160208091040260200160405190810160405280929190818152602001828054610128906107d2565b80156101735780601f1061014a57610100808354040283529160200191610173565b820191905f5260205f20905b81548152906001019060200180831161015657829003601f168201915b5050505050905090565b6101856104d8565b5f6040518060400160405290815f820180546101a0906107d2565b80601f01602080910402602001604051908101604052809291908181526020018280546101cc906107d2565b80156102175780601f106101ee57610100808354040283529160200191610217565b820191905f5260205f20905b8154815290600101906020018083116101fa57829003601f168201915b50505050508152602001600182018054610230906107d2565b80601f016020809104026020016040519081016040528092919081815260200182805461025c906107d2565b80156102a75780601f1061027e576101008083540402835291602001916102a7565b820191905f5260205f20905b81548152906001019060200180831161028a57829003601f168201915b505050505081525050905090565b5f8114806102c35750600181145b610302576040517f08c379a00000000000000000000000000000000000000000000000000000000081526004016102f990610872565b60405180910390fd5b5f8114610344576040518060400160405280600381526020017fe5a5b3000000000000000000000000000000000000000000000000000000000081525061037b565b6040518060400160405280600381526020017fe794b700000000000000000000000000000000000000000000000000000000008152505b5f600101908161038b9190610a5a565b5050565b5f805f01805461039e906107d2565b80601f01602080910402602001604051908101604052809291908181526020018280546103ca906107d2565b80156104155780601f106103ec57610100808354040283529160200191610415565b820191905f5260205f20905b8154815290600101906020018083116103f857829003601f168201915b50505050509080600101805461042a906107d2565b80601f0160208091040260200160405190810160405280929190818152602001828054610456906107d2565b80156104a15780601f10610478576101008083540402835291602001916104a1565b820191905f5260205f20905b81548152906001019060200180831161048457829003601f168201915b5050505050905082565b83835f800191826104bd929190610b33565b5081815f60010191826104d1929190610b33565b5050505050565b604051806040016040528060608152602001606081525090565b5f81519050919050565b5f82825260208201905092915050565b8281835e5f83830152505050565b5f601f19601f8301169050919050565b5f610534826104f2565b61053e81856104fc565b935061054e81856020860161050c565b6105578161051a565b840191505092915050565b5f6020820190508181035f83015261057a818461052a565b905092915050565b5f82825260208201905092915050565b5f61059c826104f2565b6105a68185610582565b93506105b681856020860161050c565b6105bf8161051a565b840191505092915050565b5f604083015f8301518482035f8601526105e48282610592565b915050602083015184820360208601526105fe8282610592565b9150508091505092915050565b5f6020820190508181035f83015261062381846105ca565b905092915050565b5f80fd5b5f80fd5b5f819050919050565b61064581610633565b811461064f575f80fd5b50565b5f813590506106608161063c565b92915050565b5f6020828403121561067b5761067a61062b565b5b5f61068884828501610652565b91505092915050565b5f6040820190508181035f8301526106a9818561052a565b905081810360208301526106bd818461052a565b90509392505050565b5f80fd5b5f80fd5b5f80fd5b5f8083601f8401126106e7576106e66106c6565b5b8235905067ffffffffffffffff811115610704576107036106ca565b5b6020830191508360018202830111156107205761071f6106ce565b5b9250929050565b5f805f806040858703121561073f5761073e61062b565b5b5f85013567ffffffffffffffff81111561075c5761075b61062f565b5b610768878288016106d2565b9450945050602085013567ffffffffffffffff81111561078b5761078a61062f565b5b610797878288016106d2565b925092505092959194509250565b7f4e487b71000000000000000000000000000000000000000000000000000000005f52602260045260245ffd5b5f60028204905060018216806107e957607f821691505b6020821081036107fc576107fb6107a5565b5b50919050565b7f706572736f6e20696e7075742076616c7565206572726f722c206974206973205f8201527f6f6e6c792030206f722031000000000000000000000000000000000000000000602082015250565b5f61085c602b836104fc565b915061086782610802565b604082019050919050565b5f6020820190508181035f83015261088981610850565b9050919050565b7f4e487b71000000000000000000000000000000000000000000000000000000005f52604160045260245ffd5b5f819050815f5260205f209050919050565b5f6020601f8301049050919050565b5f82821b905092915050565b5f600883026109197fffffffffffffffffffffffffffffffffffffffffffffffffffffffffffffffff826108de565b61092386836108de565b95508019841693508086168417925050509392505050565b5f819050919050565b5f61095e61095961095484610633565b61093b565b610633565b9050919050565b5f819050919050565b61097783610944565b61098b61098382610965565b8484546108ea565b825550505050565b5f90565b61099f610993565b6109aa81848461096e565b505050565b5b818110156109cd576109c25f82610997565b6001810190506109b0565b5050565b601f821115610a12576109e3816108bd565b6109ec846108cf565b810160208510156109fb578190505b610a0f610a07856108cf565b8301826109af565b50505b505050565b5f82821c905092915050565b5f610a325f1984600802610a17565b1980831691505092915050565b5f610a4a8383610a23565b9150826002028217905092915050565b610a63826104f2565b67ffffffffffffffff811115610a7c57610a7b610890565b5b610a8682546107d2565b610a918282856109d1565b5f60209050601f831160018114610ac2575f8415610ab0578287015190505b610aba8582610a3f565b865550610b21565b601f198416610ad0866108bd565b5f5b82811015610af757848901518255600182019150602085019450602081019050610ad2565b86831015610b145784890151610b10601f891682610a23565b8355505b6001600288020188555050505b505050505050565b5f82905092915050565b610b3d8383610b29565b67ffffffffffffffff811115610b5657610b55610890565b5b610b6082546107d2565b610b6b8282856109d1565b5f601f831160018114610b98575f8415610b86578287013590505b610b908582610a3f565b865550610bf7565b601f198416610ba6866108bd565b5f5b82811015610bcd57848901358255600182019150602085019450602081019050610ba8565b86831015610bea5784890135610be6601f891682610a23565b8355505b6001600288020188555050505b5050505050505056fea26469706673582212202946381b375b7ea50e199898a003cbcc54c0a3800ca926187c0935b701092af164736f6c634300081a0033",
					"opcodes": "PUSH1 0x80 PUSH1 0x40 MSTORE CALLVALUE DUP1 ISZERO PUSH1 0xE JUMPI PUSH0 DUP1 REVERT JUMPDEST POP PUSH2 0xC36 DUP1 PUSH2 0x1C PUSH0 CODECOPY PUSH0 RETURN INVALID PUSH1 0x80 PUSH1 0x40 MSTORE CALLVALUE DUP1 ISZERO PUSH2 0xF JUMPI PUSH0 DUP1 REVERT JUMPDEST POP PUSH1 0x4 CALLDATASIZE LT PUSH2 0x55 JUMPI PUSH0 CALLDATALOAD PUSH1 0xE0 SHR DUP1 PUSH4 0x17D7DE7C EQ PUSH2 0x59 JUMPI DUP1 PUSH4 0x1865C57D EQ PUSH2 0x77 JUMPI DUP1 PUSH4 0x652296F1 EQ PUSH2 0x95 JUMPI DUP1 PUSH4 0xC19D93FB EQ PUSH2 0xB1 JUMPI DUP1 PUSH4 0xD9038F3C EQ PUSH2 0xD0 JUMPI JUMPDEST PUSH0 DUP1 REVERT JUMPDEST PUSH2 0x61 PUSH2 0xEC JUMP JUMPDEST PUSH1 0x40 MLOAD PUSH2 0x6E SWAP2 SWAP1 PUSH2 0x562 JUMP JUMPDEST PUSH1 0x40 MLOAD DUP1 SWAP2 SUB SWAP1 RETURN JUMPDEST PUSH2 0x7F PUSH2 0x17D JUMP JUMPDEST PUSH1 0x40 MLOAD PUSH2 0x8C SWAP2 SWAP1 PUSH2 0x60B JUMP JUMPDEST PUSH1 0x40 MLOAD DUP1 SWAP2 SUB SWAP1 RETURN JUMPDEST PUSH2 0xAF PUSH1 0x4 DUP1 CALLDATASIZE SUB DUP2 ADD SWAP1 PUSH2 0xAA SWAP2 SWAP1 PUSH2 0x666 JUMP JUMPDEST PUSH2 0x2B5 JUMP JUMPDEST STOP JUMPDEST PUSH2 0xB9 PUSH2 0x38F JUMP JUMPDEST PUSH1 0x40 MLOAD PUSH2 0xC7 SWAP3 SWAP2 SWAP1 PUSH2 0x691 JUMP JUMPDEST PUSH1 0x40 MLOAD DUP1 SWAP2 SUB SWAP1 RETURN JUMPDEST PUSH2 0xEA PUSH1 0x4 DUP1 CALLDATASIZE SUB DUP2 ADD SWAP1 PUSH2 0xE5 SWAP2 SWAP1 PUSH2 0x727 JUMP JUMPDEST PUSH2 0x4AB JUMP JUMPDEST STOP JUMPDEST PUSH1 0x60 PUSH0 DUP1 ADD DUP1 SLOAD PUSH2 0xFC SWAP1 PUSH2 0x7D2 JUMP JUMPDEST DUP1 PUSH1 0x1F ADD PUSH1 0x20 DUP1 SWAP2 DIV MUL PUSH1 0x20 ADD PUSH1 0x40 MLOAD SWAP1 DUP2 ADD PUSH1 0x40 MSTORE DUP1 SWAP3 SWAP2 SWAP1 DUP2 DUP2 MSTORE PUSH1 0x20 ADD DUP3 DUP1 SLOAD PUSH2 0x128 SWAP1 PUSH2 0x7D2 JUMP JUMPDEST DUP1 ISZERO PUSH2 0x173 JUMPI DUP1 PUSH1 0x1F LT PUSH2 0x14A JUMPI PUSH2 0x100 DUP1 DUP4 SLOAD DIV MUL DUP4 MSTORE SWAP2 PUSH1 0x20 ADD SWAP2 PUSH2 0x173 JUMP JUMPDEST DUP3 ADD SWAP2 SWAP1 PUSH0 MSTORE PUSH1 0x20 PUSH0 KECCAK256 SWAP1 JUMPDEST DUP2 SLOAD DUP2 MSTORE SWAP1 PUSH1 0x1 ADD SWAP1 PUSH1 0x20 ADD DUP1 DUP4 GT PUSH2 0x156 JUMPI DUP3 SWAP1 SUB PUSH1 0x1F AND DUP3 ADD SWAP2 JUMPDEST POP POP POP POP POP SWAP1 POP SWAP1 JUMP JUMPDEST PUSH2 0x185 PUSH2 0x4D8 JUMP JUMPDEST PUSH0 PUSH1 0x40 MLOAD DUP1 PUSH1 0x40 ADD PUSH1 0x40 MSTORE SWAP1 DUP2 PUSH0 DUP3 ADD DUP1 SLOAD PUSH2 0x1A0 SWAP1 PUSH2 0x7D2 JUMP JUMPDEST DUP1 PUSH1 0x1F ADD PUSH1 0x20 DUP1 SWAP2 DIV MUL PUSH1 0x20 ADD PUSH1 0x40 MLOAD SWAP1 DUP2 ADD PUSH1 0x40 MSTORE DUP1 SWAP3 SWAP2 SWAP1 DUP2 DUP2 MSTORE PUSH1 0x20 ADD DUP3 DUP1 SLOAD PUSH2 0x1CC SWAP1 PUSH2 0x7D2 JUMP JUMPDEST DUP1 ISZERO PUSH2 0x217 JUMPI DUP1 PUSH1 0x1F LT PUSH2 0x1EE JUMPI PUSH2 0x100 DUP1 DUP4 SLOAD DIV MUL DUP4 MSTORE SWAP2 PUSH1 0x20 ADD SWAP2 PUSH2 0x217 JUMP JUMPDEST DUP3 ADD SWAP2 SWAP1 PUSH0 MSTORE PUSH1 0x20 PUSH0 KECCAK256 SWAP1 JUMPDEST DUP2 SLOAD DUP2 MSTORE SWAP1 PUSH1 0x1 ADD SWAP1 PUSH1 0x20 ADD DUP1 DUP4 GT PUSH2 0x1FA JUMPI DUP3 SWAP1 SUB PUSH1 0x1F AND DUP3 ADD SWAP2 JUMPDEST POP POP POP POP POP DUP2 MSTORE PUSH1 0x20 ADD PUSH1 0x1 DUP3 ADD DUP1 SLOAD PUSH2 0x230 SWAP1 PUSH2 0x7D2 JUMP JUMPDEST DUP1 PUSH1 0x1F ADD PUSH1 0x20 DUP1 SWAP2 DIV MUL PUSH1 0x20 ADD PUSH1 0x40 MLOAD SWAP1 DUP2 ADD PUSH1 0x40 MSTORE DUP1 SWAP3 SWAP2 SWAP1 DUP2 DUP2 MSTORE PUSH1 0x20 ADD DUP3 DUP1 SLOAD PUSH2 0x25C SWAP1 PUSH2 0x7D2 JUMP JUMPDEST DUP1 ISZERO PUSH2 0x2A7 JUMPI DUP1 PUSH1 0x1F LT PUSH2 0x27E JUMPI PUSH2 0x100 DUP1 DUP4 SLOAD DIV MUL DUP4 MSTORE SWAP2 PUSH1 0x20 ADD SWAP2 PUSH2 0x2A7 JUMP JUMPDEST DUP3 ADD SWAP2 SWAP1 PUSH0 MSTORE PUSH1 0x20 PUSH0 KECCAK256 SWAP1 JUMPDEST DUP2 SLOAD DUP2 MSTORE SWAP1 PUSH1 0x1 ADD SWAP1 PUSH1 0x20 ADD DUP1 DUP4 GT PUSH2 0x28A JUMPI DUP3 SWAP1 SUB PUSH1 0x1F AND DUP3 ADD SWAP2 JUMPDEST POP POP POP POP POP DUP2 MSTORE POP POP SWAP1 POP SWAP1 JUMP JUMPDEST PUSH0 DUP2 EQ DUP1 PUSH2 0x2C3 JUMPI POP PUSH1 0x1 DUP2 EQ JUMPDEST PUSH2 0x302 JUMPI PUSH1 0x40 MLOAD PUSH32 0x8C379A000000000000000000000000000000000000000000000000000000000 DUP2 MSTORE PUSH1 0x4 ADD PUSH2 0x2F9 SWAP1 PUSH2 0x872 JUMP JUMPDEST PUSH1 0x40 MLOAD DUP1 SWAP2 SUB SWAP1 REVERT JUMPDEST PUSH0 DUP2 EQ PUSH2 0x344 JUMPI PUSH1 0x40 MLOAD DUP1 PUSH1 0x40 ADD PUSH1 0x40 MSTORE DUP1 PUSH1 0x3 DUP2 MSTORE PUSH1 0x20 ADD PUSH32 0xE5A5B30000000000000000000000000000000000000000000000000000000000 DUP2 MSTORE POP PUSH2 0x37B JUMP JUMPDEST PUSH1 0x40 MLOAD DUP1 PUSH1 0x40 ADD PUSH1 0x40 MSTORE DUP1 PUSH1 0x3 DUP2 MSTORE PUSH1 0x20 ADD PUSH32 0xE794B70000000000000000000000000000000000000000000000000000000000 DUP2 MSTORE POP JUMPDEST PUSH0 PUSH1 0x1 ADD SWAP1 DUP2 PUSH2 0x38B SWAP2 SWAP1 PUSH2 0xA5A JUMP JUMPDEST POP POP JUMP JUMPDEST PUSH0 DUP1 PUSH0 ADD DUP1 SLOAD PUSH2 0x39E SWAP1 PUSH2 0x7D2 JUMP JUMPDEST DUP1 PUSH1 0x1F ADD PUSH1 0x20 DUP1 SWAP2 DIV MUL PUSH1 0x20 ADD PUSH1 0x40 MLOAD SWAP1 DUP2 ADD PUSH1 0x40 MSTORE DUP1 SWAP3 SWAP2 SWAP1 DUP2 DUP2 MSTORE PUSH1 0x20 ADD DUP3 DUP1 SLOAD PUSH2 0x3CA SWAP1 PUSH2 0x7D2 JUMP JUMPDEST DUP1 ISZERO PUSH2 0x415 JUMPI DUP1 PUSH1 0x1F LT PUSH2 0x3EC JUMPI PUSH2 0x100 DUP1 DUP4 SLOAD DIV MUL DUP4 MSTORE SWAP2 PUSH1 0x20 ADD SWAP2 PUSH2 0x415 JUMP JUMPDEST DUP3 ADD SWAP2 SWAP1 PUSH0 MSTORE PUSH1 0x20 PUSH0 KECCAK256 SWAP1 JUMPDEST DUP2 SLOAD DUP2 MSTORE SWAP1 PUSH1 0x1 ADD SWAP1 PUSH1 0x20 ADD DUP1 DUP4 GT PUSH2 0x3F8 JUMPI DUP3 SWAP1 SUB PUSH1 0x1F AND DUP3 ADD SWAP2 JUMPDEST POP POP POP POP POP SWAP1 DUP1 PUSH1 0x1 ADD DUP1 SLOAD PUSH2 0x42A SWAP1 PUSH2 0x7D2 JUMP JUMPDEST DUP1 PUSH1 0x1F ADD PUSH1 0x20 DUP1 SWAP2 DIV MUL PUSH1 0x20 ADD PUSH1 0x40 MLOAD SWAP1 DUP2 ADD PUSH1 0x40 MSTORE DUP1 SWAP3 SWAP2 SWAP1 DUP2 DUP2 MSTORE PUSH1 0x20 ADD DUP3 DUP1 SLOAD PUSH2 0x456 SWAP1 PUSH2 0x7D2 JUMP JUMPDEST DUP1 ISZERO PUSH2 0x4A1 JUMPI DUP1 PUSH1 0x1F LT PUSH2 0x478 JUMPI PUSH2 0x100 DUP1 DUP4 SLOAD DIV MUL DUP4 MSTORE SWAP2 PUSH1 0x20 ADD SWAP2 PUSH2 0x4A1 JUMP JUMPDEST DUP3 ADD SWAP2 SWAP1 PUSH0 MSTORE PUSH1 0x20 PUSH0 KECCAK256 SWAP1 JUMPDEST DUP2 SLOAD DUP2 MSTORE SWAP1 PUSH1 0x1 ADD SWAP1 PUSH1 0x20 ADD DUP1 DUP4 GT PUSH2 0x484 JUMPI DUP3 SWAP1 SUB PUSH1 0x1F AND DUP3 ADD SWAP2 JUMPDEST POP POP POP POP POP SWAP1 POP DUP3 JUMP JUMPDEST DUP4 DUP4 PUSH0 DUP1 ADD SWAP2 DUP3 PUSH2 0x4BD SWAP3 SWAP2 SWAP1 PUSH2 0xB33 JUMP JUMPDEST POP DUP2 DUP2 PUSH0 PUSH1 0x1 ADD SWAP2 DUP3 PUSH2 0x4D1 SWAP3 SWAP2 SWAP1 PUSH2 0xB33 JUMP JUMPDEST POP POP POP POP POP JUMP JUMPDEST PUSH1 0x40 MLOAD DUP1 PUSH1 0x40 ADD PUSH1 0x40 MSTORE DUP1 PUSH1 0x60 DUP2 MSTORE PUSH1 0x20 ADD PUSH1 0x60 DUP2 MSTORE POP SWAP1 JUMP JUMPDEST PUSH0 DUP2 MLOAD SWAP1 POP SWAP2 SWAP1 POP JUMP JUMPDEST PUSH0 DUP3 DUP3 MSTORE PUSH1 0x20 DUP3 ADD SWAP1 POP SWAP3 SWAP2 POP POP JUMP JUMPDEST DUP3 DUP2 DUP4 MCOPY PUSH0 DUP4 DUP4 ADD MSTORE POP POP POP JUMP JUMPDEST PUSH0 PUSH1 0x1F NOT PUSH1 0x1F DUP4 ADD AND SWAP1 POP SWAP2 SWAP1 POP JUMP JUMPDEST PUSH0 PUSH2 0x534 DUP3 PUSH2 0x4F2 JUMP JUMPDEST PUSH2 0x53E DUP2 DUP6 PUSH2 0x4FC JUMP JUMPDEST SWAP4 POP PUSH2 0x54E DUP2 DUP6 PUSH1 0x20 DUP7 ADD PUSH2 0x50C JUMP JUMPDEST PUSH2 0x557 DUP2 PUSH2 0x51A JUMP JUMPDEST DUP5 ADD SWAP2 POP POP SWAP3 SWAP2 POP POP JUMP JUMPDEST PUSH0 PUSH1 0x20 DUP3 ADD SWAP1 POP DUP2 DUP2 SUB PUSH0 DUP4 ADD MSTORE PUSH2 0x57A DUP2 DUP5 PUSH2 0x52A JUMP JUMPDEST SWAP1 POP SWAP3 SWAP2 POP POP JUMP JUMPDEST PUSH0 DUP3 DUP3 MSTORE PUSH1 0x20 DUP3 ADD SWAP1 POP SWAP3 SWAP2 POP POP JUMP JUMPDEST PUSH0 PUSH2 0x59C DUP3 PUSH2 0x4F2 JUMP JUMPDEST PUSH2 0x5A6 DUP2 DUP6 PUSH2 0x582 JUMP JUMPDEST SWAP4 POP PUSH2 0x5B6 DUP2 DUP6 PUSH1 0x20 DUP7 ADD PUSH2 0x50C JUMP JUMPDEST PUSH2 0x5BF DUP2 PUSH2 0x51A JUMP JUMPDEST DUP5 ADD SWAP2 POP POP SWAP3 SWAP2 POP POP JUMP JUMPDEST PUSH0 PUSH1 0x40 DUP4 ADD PUSH0 DUP4 ADD MLOAD DUP5 DUP3 SUB PUSH0 DUP7 ADD MSTORE PUSH2 0x5E4 DUP3 DUP3 PUSH2 0x592 JUMP JUMPDEST SWAP2 POP POP PUSH1 0x20 DUP4 ADD MLOAD DUP5 DUP3 SUB PUSH1 0x20 DUP7 ADD MSTORE PUSH2 0x5FE DUP3 DUP3 PUSH2 0x592 JUMP JUMPDEST SWAP2 POP POP DUP1 SWAP2 POP POP SWAP3 SWAP2 POP POP JUMP JUMPDEST PUSH0 PUSH1 0x20 DUP3 ADD SWAP1 POP DUP2 DUP2 SUB PUSH0 DUP4 ADD MSTORE PUSH2 0x623 DUP2 DUP5 PUSH2 0x5CA JUMP JUMPDEST SWAP1 POP SWAP3 SWAP2 POP POP JUMP JUMPDEST PUSH0 DUP1 REVERT JUMPDEST PUSH0 DUP1 REVERT JUMPDEST PUSH0 DUP2 SWAP1 POP SWAP2 SWAP1 POP JUMP JUMPDEST PUSH2 0x645 DUP2 PUSH2 0x633 JUMP JUMPDEST DUP2 EQ PUSH2 0x64F JUMPI PUSH0 DUP1 REVERT JUMPDEST POP JUMP JUMPDEST PUSH0 DUP2 CALLDATALOAD SWAP1 POP PUSH2 0x660 DUP2 PUSH2 0x63C JUMP JUMPDEST SWAP3 SWAP2 POP POP JUMP JUMPDEST PUSH0 PUSH1 0x20 DUP3 DUP5 SUB SLT ISZERO PUSH2 0x67B JUMPI PUSH2 0x67A PUSH2 0x62B JUMP JUMPDEST JUMPDEST PUSH0 PUSH2 0x688 DUP5 DUP3 DUP6 ADD PUSH2 0x652 JUMP JUMPDEST SWAP2 POP POP SWAP3 SWAP2 POP POP JUMP JUMPDEST PUSH0 PUSH1 0x40 DUP3 ADD SWAP1 POP DUP2 DUP2 SUB PUSH0 DUP4 ADD MSTORE PUSH2 0x6A9 DUP2 DUP6 PUSH2 0x52A JUMP JUMPDEST SWAP1 POP DUP2 DUP2 SUB PUSH1 0x20 DUP4 ADD MSTORE PUSH2 0x6BD DUP2 DUP5 PUSH2 0x52A JUMP JUMPDEST SWAP1 POP SWAP4 SWAP3 POP POP POP JUMP JUMPDEST PUSH0 DUP1 REVERT JUMPDEST PUSH0 DUP1 REVERT JUMPDEST PUSH0 DUP1 REVERT JUMPDEST PUSH0 DUP1 DUP4 PUSH1 0x1F DUP5 ADD SLT PUSH2 0x6E7 JUMPI PUSH2 0x6E6 PUSH2 0x6C6 JUMP JUMPDEST JUMPDEST DUP3 CALLDATALOAD SWAP1 POP PUSH8 0xFFFFFFFFFFFFFFFF DUP2 GT ISZERO PUSH2 0x704 JUMPI PUSH2 0x703 PUSH2 0x6CA JUMP JUMPDEST JUMPDEST PUSH1 0x20 DUP4 ADD SWAP2 POP DUP4 PUSH1 0x1 DUP3 MUL DUP4 ADD GT ISZERO PUSH2 0x720 JUMPI PUSH2 0x71F PUSH2 0x6CE JUMP JUMPDEST JUMPDEST SWAP3 POP SWAP3 SWAP1 POP JUMP JUMPDEST PUSH0 DUP1 PUSH0 DUP1 PUSH1 0x40 DUP6 DUP8 SUB SLT ISZERO PUSH2 0x73F JUMPI PUSH2 0x73E PUSH2 0x62B JUMP JUMPDEST JUMPDEST PUSH0 DUP6 ADD CALLDATALOAD PUSH8 0xFFFFFFFFFFFFFFFF DUP2 GT ISZERO PUSH2 0x75C JUMPI PUSH2 0x75B PUSH2 0x62F JUMP JUMPDEST JUMPDEST PUSH2 0x768 DUP8 DUP3 DUP9 ADD PUSH2 0x6D2 JUMP JUMPDEST SWAP5 POP SWAP5 POP POP PUSH1 0x20 DUP6 ADD CALLDATALOAD PUSH8 0xFFFFFFFFFFFFFFFF DUP2 GT ISZERO PUSH2 0x78B JUMPI PUSH2 0x78A PUSH2 0x62F JUMP JUMPDEST JUMPDEST PUSH2 0x797 DUP8 DUP3 DUP9 ADD PUSH2 0x6D2 JUMP JUMPDEST SWAP3 POP SWAP3 POP POP SWAP3 SWAP6 SWAP2 SWAP5 POP SWAP3 POP JUMP JUMPDEST PUSH32 0x4E487B7100000000000000000000000000000000000000000000000000000000 PUSH0 MSTORE PUSH1 0x22 PUSH1 0x4 MSTORE PUSH1 0x24 PUSH0 REVERT JUMPDEST PUSH0 PUSH1 0x2 DUP3 DIV SWAP1 POP PUSH1 0x1 DUP3 AND DUP1 PUSH2 0x7E9 JUMPI PUSH1 0x7F DUP3 AND SWAP2 POP JUMPDEST PUSH1 0x20 DUP3 LT DUP2 SUB PUSH2 0x7FC JUMPI PUSH2 0x7FB PUSH2 0x7A5 JUMP JUMPDEST JUMPDEST POP SWAP2 SWAP1 POP JUMP JUMPDEST PUSH32 0x706572736F6E20696E7075742076616C7565206572726F722C20697420697320 PUSH0 DUP3 ADD MSTORE PUSH32 0x6F6E6C792030206F722031000000000000000000000000000000000000000000 PUSH1 0x20 DUP3 ADD MSTORE POP JUMP JUMPDEST PUSH0 PUSH2 0x85C PUSH1 0x2B DUP4 PUSH2 0x4FC JUMP JUMPDEST SWAP2 POP PUSH2 0x867 DUP3 PUSH2 0x802 JUMP JUMPDEST PUSH1 0x40 DUP3 ADD SWAP1 POP SWAP2 SWAP1 POP JUMP JUMPDEST PUSH0 PUSH1 0x20 DUP3 ADD SWAP1 POP DUP2 DUP2 SUB PUSH0 DUP4 ADD MSTORE PUSH2 0x889 DUP2 PUSH2 0x850 JUMP JUMPDEST SWAP1 POP SWAP2 SWAP1 POP JUMP JUMPDEST PUSH32 0x4E487B7100000000000000000000000000000000000000000000000000000000 PUSH0 MSTORE PUSH1 0x41 PUSH1 0x4 MSTORE PUSH1 0x24 PUSH0 REVERT JUMPDEST PUSH0 DUP2 SWAP1 POP DUP2 PUSH0 MSTORE PUSH1 0x20 PUSH0 KECCAK256 SWAP1 POP SWAP2 SWAP1 POP JUMP JUMPDEST PUSH0 PUSH1 0x20 PUSH1 0x1F DUP4 ADD DIV SWAP1 POP SWAP2 SWAP1 POP JUMP JUMPDEST PUSH0 DUP3 DUP3 SHL SWAP1 POP SWAP3 SWAP2 POP POP JUMP JUMPDEST PUSH0 PUSH1 0x8 DUP4 MUL PUSH2 0x919 PUSH32 0xFFFFFFFFFFFFFFFFFFFFFFFFFFFFFFFFFFFFFFFFFFFFFFFFFFFFFFFFFFFFFFFF DUP3 PUSH2 0x8DE JUMP JUMPDEST PUSH2 0x923 DUP7 DUP4 PUSH2 0x8DE JUMP JUMPDEST SWAP6 POP DUP1 NOT DUP5 AND SWAP4 POP DUP1 DUP7 AND DUP5 OR SWAP3 POP POP POP SWAP4 SWAP3 POP POP POP JUMP JUMPDEST PUSH0 DUP2 SWAP1 POP SWAP2 SWAP1 POP JUMP JUMPDEST PUSH0 PUSH2 0x95E PUSH2 0x959 PUSH2 0x954 DUP5 PUSH2 0x633 JUMP JUMPDEST PUSH2 0x93B JUMP JUMPDEST PUSH2 0x633 JUMP JUMPDEST SWAP1 POP SWAP2 SWAP1 POP JUMP JUMPDEST PUSH0 DUP2 SWAP1 POP SWAP2 SWAP1 POP JUMP JUMPDEST PUSH2 0x977 DUP4 PUSH2 0x944 JUMP JUMPDEST PUSH2 0x98B PUSH2 0x983 DUP3 PUSH2 0x965 JUMP JUMPDEST DUP5 DUP5 SLOAD PUSH2 0x8EA JUMP JUMPDEST DUP3 SSTORE POP POP POP POP JUMP JUMPDEST PUSH0 SWAP1 JUMP JUMPDEST PUSH2 0x99F PUSH2 0x993 JUMP JUMPDEST PUSH2 0x9AA DUP2 DUP5 DUP5 PUSH2 0x96E JUMP JUMPDEST POP POP POP JUMP JUMPDEST JUMPDEST DUP2 DUP2 LT ISZERO PUSH2 0x9CD JUMPI PUSH2 0x9C2 PUSH0 DUP3 PUSH2 0x997 JUMP JUMPDEST PUSH1 0x1 DUP2 ADD SWAP1 POP PUSH2 0x9B0 JUMP JUMPDEST POP POP JUMP JUMPDEST PUSH1 0x1F DUP3 GT ISZERO PUSH2 0xA12 JUMPI PUSH2 0x9E3 DUP2 PUSH2 0x8BD JUMP JUMPDEST PUSH2 0x9EC DUP5 PUSH2 0x8CF JUMP JUMPDEST DUP2 ADD PUSH1 0x20 DUP6 LT ISZERO PUSH2 0x9FB JUMPI DUP2 SWAP1 POP JUMPDEST PUSH2 0xA0F PUSH2 0xA07 DUP6 PUSH2 0x8CF JUMP JUMPDEST DUP4 ADD DUP3 PUSH2 0x9AF JUMP JUMPDEST POP POP JUMPDEST POP POP POP JUMP JUMPDEST PUSH0 DUP3 DUP3 SHR SWAP1 POP SWAP3 SWAP2 POP POP JUMP JUMPDEST PUSH0 PUSH2 0xA32 PUSH0 NOT DUP5 PUSH1 0x8 MUL PUSH2 0xA17 JUMP JUMPDEST NOT DUP1 DUP4 AND SWAP2 POP POP SWAP3 SWAP2 POP POP JUMP JUMPDEST PUSH0 PUSH2 0xA4A DUP4 DUP4 PUSH2 0xA23 JUMP JUMPDEST SWAP2 POP DUP3 PUSH1 0x2 MUL DUP3 OR SWAP1 POP SWAP3 SWAP2 POP POP JUMP JUMPDEST PUSH2 0xA63 DUP3 PUSH2 0x4F2 JUMP JUMPDEST PUSH8 0xFFFFFFFFFFFFFFFF DUP2 GT ISZERO PUSH2 0xA7C JUMPI PUSH2 0xA7B PUSH2 0x890 JUMP JUMPDEST JUMPDEST PUSH2 0xA86 DUP3 SLOAD PUSH2 0x7D2 JUMP JUMPDEST PUSH2 0xA91 DUP3 DUP3 DUP6 PUSH2 0x9D1 JUMP JUMPDEST PUSH0 PUSH1 0x20 SWAP1 POP PUSH1 0x1F DUP4 GT PUSH1 0x1 DUP2 EQ PUSH2 0xAC2 JUMPI PUSH0 DUP5 ISZERO PUSH2 0xAB0 JUMPI DUP3 DUP8 ADD MLOAD SWAP1 POP JUMPDEST PUSH2 0xABA DUP6 DUP3 PUSH2 0xA3F JUMP JUMPDEST DUP7 SSTORE POP PUSH2 0xB21 JUMP JUMPDEST PUSH1 0x1F NOT DUP5 AND PUSH2 0xAD0 DUP7 PUSH2 0x8BD JUMP JUMPDEST PUSH0 JUMPDEST DUP3 DUP2 LT ISZERO PUSH2 0xAF7 JUMPI DUP5 DUP10 ADD MLOAD DUP3 SSTORE PUSH1 0x1 DUP3 ADD SWAP2 POP PUSH1 0x20 DUP6 ADD SWAP5 POP PUSH1 0x20 DUP2 ADD SWAP1 POP PUSH2 0xAD2 JUMP JUMPDEST DUP7 DUP4 LT ISZERO PUSH2 0xB14 JUMPI DUP5 DUP10 ADD MLOAD PUSH2 0xB10 PUSH1 0x1F DUP10 AND DUP3 PUSH2 0xA23 JUMP JUMPDEST DUP4 SSTORE POP JUMPDEST PUSH1 0x1 PUSH1 0x2 DUP9 MUL ADD DUP9 SSTORE POP POP POP JUMPDEST POP POP POP POP POP POP JUMP JUMPDEST PUSH0 DUP3 SWAP1 POP SWAP3 SWAP2 POP POP JUMP JUMPDEST PUSH2 0xB3D DUP4 DUP4 PUSH2 0xB29 JUMP JUMPDEST PUSH8 0xFFFFFFFFFFFFFFFF DUP2 GT ISZERO PUSH2 0xB56 JUMPI PUSH2 0xB55 PUSH2 0x890 JUMP JUMPDEST JUMPDEST PUSH2 0xB60 DUP3 SLOAD PUSH2 0x7D2 JUMP JUMPDEST PUSH2 0xB6B DUP3 DUP3 DUP6 PUSH2 0x9D1 JUMP JUMPDEST PUSH0 PUSH1 0x1F DUP4 GT PUSH1 0x1 DUP2 EQ PUSH2 0xB98 JUMPI PUSH0 DUP5 ISZERO PUSH2 0xB86 JUMPI DUP3 DUP8 ADD CALLDATALOAD SWAP1 POP JUMPDEST PUSH2 0xB90 DUP6 DUP3 PUSH2 0xA3F JUMP JUMPDEST DUP7 SSTORE POP PUSH2 0xBF7 JUMP JUMPDEST PUSH1 0x1F NOT DUP5 AND PUSH2 0xBA6 DUP7 PUSH2 0x8BD JUMP JUMPDEST PUSH0 JUMPDEST DUP3 DUP2 LT ISZERO PUSH2 0xBCD JUMPI DUP5 DUP10 ADD CALLDATALOAD DUP3 SSTORE PUSH1 0x1 DUP3 ADD SWAP2 POP PUSH1 0x20 DUP6 ADD SWAP5 POP PUSH1 0x20 DUP2 ADD SWAP1 POP PUSH2 0xBA8 JUMP JUMPDEST DUP7 DUP4 LT ISZERO PUSH2 0xBEA JUMPI DUP5 DUP10 ADD CALLDATALOAD PUSH2 0xBE6 PUSH1 0x1F DUP10 AND DUP3 PUSH2 0xA23 JUMP JUMPDEST DUP4 SSTORE POP JUMPDEST PUSH1 0x1 PUSH1 0x2 DUP9 MUL ADD DUP9 SSTORE POP POP POP JUMPDEST POP POP POP POP POP POP POP JUMP INVALID LOG2 PUSH5 0x6970667358 0x22 SLT KECCAK256 0x29 CHAINID CODESIZE SHL CALLDATACOPY JUMPDEST PUSH31 0xA50E199898A003CBCC54C0A3800CA926187C0935B701092AF164736F6C6343 STOP ADDMOD BYTE STOP CALLER "
				},
				"gasEstimates": {
					"creation": {
						"codeDepositCost": "625200",
						"executionCost": "655",
						"totalCost": "625855"
					},
					"external": {
						"changeGender(uint256)": "infinite",
						"getName()": "infinite",
						"getState()": "infinite",
						"setState(string,string)": "infinite",
						"state()": "infinite"
					}
				},
				"methodIdentifiers": {
					"changeGender(uint256)": "652296f1",
					"getName()": "17d7de7c",
					"getState()": "1865c57d",
					"setState(string,string)": "d9038f3c",
					"state()": "c19d93fb"
				}
			},
			"storageLayout": {
				"storage": [
					{
						"astId": 12,
						"contract": "StoreType.sol:person",
						"label": "state",
						"offset": 0,
						"slot": "0",
						"type": "t_struct(State)9_storage"
					}
				],
				"types": {
					"t_string_storage": {
						"encoding": "bytes",
						"label": "string",
						"numberOfBytes": "32"
					},
					"t_struct(State)9_storage": {
						"encoding": "inplace",
						"label": "struct person.State",
						"members": [
							{
								"astId": 6,
								"contract": "StoreType.sol:person",
								"label": "name",
								"offset": 0,
								"slot": "0",
								"type": "t_string_storage"
							},
							{
								"astId": 8,
								"contract": "StoreType.sol:person",
								"label": "gender",
								"offset": 0,
								"slot": "1",
								"type": "t_string_storage"
							}
						],
						"numberOfBytes": "64"
					}
				}
			},
			"userdoc": {
				"kind": "user",
				"methods": {},
				"version": 1
			}
		}
	}
}