{
	"ArrayType.sol": {
		"ArrayType": {
			"abi": [
				{
					"inputs": [],
					"name": "getArr",
					"outputs": [
						{
							"internalType": "uint256[5]",
							"name": "",
							"type": "uint256[5]"
						}
					],
					"stateMutability": "view",
					"type": "function"
				},
				{
					"inputs": [],
					"name": "sumArray",
					"outputs": [
						{
							"internalType": "uint256",
							"name": "",
							"type": "uint256"
						}
					],
					"stateMutability": "view",
					"type": "function"
				}
			],
			"devdoc": {
				"kind": "dev",
				"methods": {},
				"version": 1
			},
			"evm": {
				"assembly": "    /* \"ArrayType.sol\":97:444  contract ArrayType {... */\n  mstore(0x40, 0x80)\n    /* \"ArrayType.sol\":123:148  uint[5] arr = [2,3,4,5,6] */\n  mload(0x40)\n  dup1\n  0xa0\n  add\n  0x40\n  mstore\n  dup1\n    /* \"ArrayType.sol\":138:139  2 */\n  0x02\n    /* \"ArrayType.sol\":123:148  uint[5] arr = [2,3,4,5,6] */\n  0xff\n  and\n  dup2\n  mstore\n  0x20\n  add\n    /* \"ArrayType.sol\":140:141  3 */\n  0x03\n    /* \"ArrayType.sol\":123:148  uint[5] arr = [2,3,4,5,6] */\n  0xff\n  and\n  dup2\n  mstore\n  0x20\n  add\n    /* \"ArrayType.sol\":142:143  4 */\n  0x04\n    /* \"ArrayType.sol\":123:148  uint[5] arr = [2,3,4,5,6] */\n  0xff\n  and\n  dup2\n  mstore\n  0x20\n  add\n    /* \"ArrayType.sol\":144:145  5 */\n  0x05\n    /* \"ArrayType.sol\":123:148  uint[5] arr = [2,3,4,5,6] */\n  0xff\n  and\n  dup2\n  mstore\n  0x20\n  add\n    /* \"ArrayType.sol\":146:147  6 */\n  0x06\n    /* \"ArrayType.sol\":123:148  uint[5] arr = [2,3,4,5,6] */\n  0xff\n  and\n  dup2\n  mstore\n  pop\n  0x00\n  swap1\n  0x05\n  tag_1\n  swap3\n  swap2\n  swap1\n  tag_2\n  jump\t// in\ntag_1:\n  pop\n    /* \"ArrayType.sol\":97:444  contract ArrayType {... */\n  callvalue\n  dup1\n  iszero\n  tag_3\n  jumpi\n  0x00\n  dup1\n  revert\ntag_3:\n  pop\n  jump(tag_4)\ntag_2:\n  dup3\n  0x05\n  dup2\n  add\n  swap3\n  dup3\n  iszero\n  tag_5\n  jumpi\n  swap2\n  0x20\n  mul\n  dup3\n  add\ntag_6:\n  dup3\n  dup2\n  gt\n  iszero\n  tag_7\n  jumpi\n  dup3\n  mload\n  dup3\n  swap1\n  0xff\n  and\n  swap1\n  sstore\n  swap2\n  0x20\n  add\n  swap2\n  swap1\n  0x01\n  add\n  swap1\n  jump(tag_6)\ntag_7:\ntag_5:\n  pop\n  swap1\n  pop\n  tag_8\n  swap2\n  swap1\n  tag_9\n  jump\t// in\ntag_8:\n  pop\n  swap1\n  jump\t// out\ntag_9:\ntag_10:\n  dup1\n  dup3\n  gt\n  iszero\n  tag_11\n  jumpi\n  0x00\n  dup2\n  0x00\n  swap1\n  sstore\n  pop\n  0x01\n  add\n  jump(tag_10)\ntag_11:\n  pop\n  swap1\n  jump\t// out\ntag_4:\n  dataSize(sub_0)\n  dup1\n  dataOffset(sub_0)\n  0x00\n  codecopy\n  0x00\n  return\nstop\n\nsub_0: assembly {\n        /* \"ArrayType.sol\":97:444  contract ArrayType {... */\n      mstore(0x40, 0x80)\n      callvalue\n      dup1\n      iszero\n      tag_1\n      jumpi\n      0x00\n      dup1\n      revert\n    tag_1:\n      pop\n      jumpi(tag_2, lt(calldatasize, 0x04))\n      shr(0xe0, calldataload(0x00))\n      dup1\n      0x81d73423\n      eq\n      tag_3\n      jumpi\n      dup1\n      0xfb8cbced\n      eq\n      tag_4\n      jumpi\n    tag_2:\n      0x00\n      dup1\n      revert\n        /* \"ArrayType.sol\":251:440  function sumArray() view public returns (uint){... */\n    tag_3:\n      tag_5\n      tag_6\n      jump\t// in\n    tag_5:\n      mload(0x40)\n      tag_7\n      swap2\n      swap1\n      tag_8\n      jump\t// in\n    tag_7:\n      mload(0x40)\n      dup1\n      swap2\n      sub\n      swap1\n      return\n        /* \"ArrayType.sol\":157:240  function getArr() view public returns (uint[5] memory){... */\n    tag_4:\n      tag_9\n      tag_10\n      jump\t// in\n    tag_9:\n      mload(0x40)\n      tag_11\n      swap2\n      swap1\n      tag_12\n      jump\t// in\n    tag_11:\n      mload(0x40)\n      dup1\n      swap2\n      sub\n      swap1\n      return\n        /* \"ArrayType.sol\":251:440  function sumArray() view public returns (uint){... */\n    tag_6:\n        /* \"ArrayType.sol\":292:296  uint */\n      0x00\n        /* \"ArrayType.sol\":308:316  uint sum */\n      dup1\n        /* \"ArrayType.sol\":319:320  0 */\n      0x00\n        /* \"ArrayType.sol\":308:320  uint sum = 0 */\n      swap1\n      pop\n        /* \"ArrayType.sol\":337:343  uint i */\n      0x00\n        /* \"ArrayType.sol\":333:410  for(uint i = 0; i < arr.length; i++) {... */\n    tag_14:\n        /* \"ArrayType.sol\":353:363  arr.length */\n      0x05\n        /* \"ArrayType.sol\":349:350  i */\n      dup2\n        /* \"ArrayType.sol\":349:363  i < arr.length */\n      lt\n        /* \"ArrayType.sol\":333:410  for(uint i = 0; i < arr.length; i++) {... */\n      iszero\n      tag_15\n      jumpi\n        /* \"ArrayType.sol\":392:395  arr */\n      0x00\n        /* \"ArrayType.sol\":396:397  1 */\n      0x01\n        /* \"ArrayType.sol\":392:398  arr[1] */\n      0x05\n      dup2\n      lt\n      tag_17\n      jumpi\n      tag_18\n      tag_19\n      jump\t// in\n    tag_18:\n    tag_17:\n      add\n      sload\n        /* \"ArrayType.sol\":385:398  sum += arr[1] */\n      dup3\n      tag_21\n      swap2\n      swap1\n      tag_22\n      jump\t// in\n    tag_21:\n      swap2\n      pop\n        /* \"ArrayType.sol\":365:368  i++ */\n      dup1\n      dup1\n      0x01\n      add\n      swap2\n      pop\n      pop\n        /* \"ArrayType.sol\":333:410  for(uint i = 0; i < arr.length; i++) {... */\n      jump(tag_14)\n    tag_15:\n      pop\n        /* \"ArrayType.sol\":429:432  sum */\n      dup1\n        /* \"ArrayType.sol\":422:432  return sum */\n      swap2\n      pop\n      pop\n        /* \"ArrayType.sol\":251:440  function sumArray() view public returns (uint){... */\n      swap1\n      jump\t// out\n        /* \"ArrayType.sol\":157:240  function getArr() view public returns (uint[5] memory){... */\n    tag_10:\n        /* \"ArrayType.sol\":196:210  uint[5] memory */\n      tag_23\n      tag_24\n      jump\t// in\n    tag_23:\n        /* \"ArrayType.sol\":229:232  arr */\n      0x00\n        /* \"ArrayType.sol\":222:232  return arr */\n      0x05\n      dup1\n      0x20\n      mul\n      mload(0x40)\n      swap1\n      dup2\n      add\n      0x40\n      mstore\n      dup1\n      swap3\n      swap2\n      swap1\n      dup3\n      0x05\n      dup1\n      iszero\n      tag_26\n      jumpi\n      0x20\n      mul\n      dup3\n      add\n      swap2\n    tag_27:\n      dup2\n      sload\n      dup2\n      mstore\n      0x20\n      add\n      swap1\n      0x01\n      add\n      swap1\n      dup1\n      dup4\n      gt\n      tag_27\n      jumpi\n    tag_26:\n      pop\n      pop\n      pop\n      pop\n      pop\n      swap1\n      pop\n        /* \"ArrayType.sol\":157:240  function getArr() view public returns (uint[5] memory){... */\n      swap1\n      jump\t// out\n    tag_24:\n      mload(0x40)\n      dup1\n      0xa0\n      add\n      0x40\n      mstore\n      dup1\n      0x05\n      swap1\n      0x20\n      dup3\n      mul\n      dup1\n      calldatasize\n      dup4\n      calldatacopy\n      dup1\n      dup3\n      add\n      swap2\n      pop\n      pop\n      swap1\n      pop\n      pop\n      swap1\n      jump\t// out\n        /* \"#utility.yul\":7:84   */\n    tag_28:\n        /* \"#utility.yul\":44:51   */\n      0x00\n        /* \"#utility.yul\":73:78   */\n      dup2\n        /* \"#utility.yul\":62:78   */\n      swap1\n      pop\n        /* \"#utility.yul\":7:84   */\n      swap2\n      swap1\n      pop\n      jump\t// out\n        /* \"#utility.yul\":90:208   */\n    tag_29:\n        /* \"#utility.yul\":177:201   */\n      tag_41\n        /* \"#utility.yul\":195:200   */\n      dup2\n        /* \"#utility.yul\":177:201   */\n      tag_28\n      jump\t// in\n    tag_41:\n        /* \"#utility.yul\":172:175   */\n      dup3\n        /* \"#utility.yul\":165:202   */\n      mstore\n        /* \"#utility.yul\":90:208   */\n      pop\n      pop\n      jump\t// out\n        /* \"#utility.yul\":214:436   */\n    tag_8:\n        /* \"#utility.yul\":307:311   */\n      0x00\n        /* \"#utility.yul\":345:347   */\n      0x20\n        /* \"#utility.yul\":334:343   */\n      dup3\n        /* \"#utility.yul\":330:348   */\n      add\n        /* \"#utility.yul\":322:348   */\n      swap1\n      pop\n        /* \"#utility.yul\":358:429   */\n      tag_43\n        /* \"#utility.yul\":426:427   */\n      0x00\n        /* \"#utility.yul\":415:424   */\n      dup4\n        /* \"#utility.yul\":411:428   */\n      add\n        /* \"#utility.yul\":402:408   */\n      dup5\n        /* \"#utility.yul\":358:429   */\n      tag_29\n      jump\t// in\n    tag_43:\n        /* \"#utility.yul\":214:436   */\n      swap3\n      swap2\n      pop\n      pop\n      jump\t// out\n        /* \"#utility.yul\":442:546   */\n    tag_30:\n        /* \"#utility.yul\":507:513   */\n      0x00\n        /* \"#utility.yul\":535:539   */\n      0x05\n        /* \"#utility.yul\":525:539   */\n      swap1\n      pop\n        /* \"#utility.yul\":442:546   */\n      swap2\n      swap1\n      pop\n      jump\t// out\n        /* \"#utility.yul\":552:695   */\n    tag_31:\n        /* \"#utility.yul\":649:660   */\n      0x00\n        /* \"#utility.yul\":686:689   */\n      dup2\n        /* \"#utility.yul\":671:689   */\n      swap1\n      pop\n        /* \"#utility.yul\":552:695   */\n      swap3\n      swap2\n      pop\n      pop\n      jump\t// out\n        /* \"#utility.yul\":701:799   */\n    tag_32:\n        /* \"#utility.yul\":766:770   */\n      0x00\n        /* \"#utility.yul\":789:792   */\n      dup2\n        /* \"#utility.yul\":781:792   */\n      swap1\n      pop\n        /* \"#utility.yul\":701:799   */\n      swap2\n      swap1\n      pop\n      jump\t// out\n        /* \"#utility.yul\":805:913   */\n    tag_33:\n        /* \"#utility.yul\":882:906   */\n      tag_48\n        /* \"#utility.yul\":900:905   */\n      dup2\n        /* \"#utility.yul\":882:906   */\n      tag_28\n      jump\t// in\n    tag_48:\n        /* \"#utility.yul\":877:880   */\n      dup3\n        /* \"#utility.yul\":870:907   */\n      mstore\n        /* \"#utility.yul\":805:913   */\n      pop\n      pop\n      jump\t// out\n        /* \"#utility.yul\":919:1098   */\n    tag_34:\n        /* \"#utility.yul\":988:998   */\n      0x00\n        /* \"#utility.yul\":1009:1055   */\n      tag_50\n        /* \"#utility.yul\":1051:1054   */\n      dup4\n        /* \"#utility.yul\":1043:1049   */\n      dup4\n        /* \"#utility.yul\":1009:1055   */\n      tag_33\n      jump\t// in\n    tag_50:\n        /* \"#utility.yul\":1087:1091   */\n      0x20\n        /* \"#utility.yul\":1082:1085   */\n      dup4\n        /* \"#utility.yul\":1078:1092   */\n      add\n        /* \"#utility.yul\":1064:1092   */\n      swap1\n      pop\n        /* \"#utility.yul\":919:1098   */\n      swap3\n      swap2\n      pop\n      pop\n      jump\t// out\n        /* \"#utility.yul\":1104:1215   */\n    tag_35:\n        /* \"#utility.yul\":1172:1176   */\n      0x00\n        /* \"#utility.yul\":1204:1208   */\n      0x20\n        /* \"#utility.yul\":1199:1202   */\n      dup3\n        /* \"#utility.yul\":1195:1209   */\n      add\n        /* \"#utility.yul\":1187:1209   */\n      swap1\n      pop\n        /* \"#utility.yul\":1104:1215   */\n      swap2\n      swap1\n      pop\n      jump\t// out\n        /* \"#utility.yul\":1253:1947   */\n    tag_36:\n        /* \"#utility.yul\":1389:1441   */\n      tag_53\n        /* \"#utility.yul\":1435:1440   */\n      dup2\n        /* \"#utility.yul\":1389:1441   */\n      tag_30\n      jump\t// in\n    tag_53:\n        /* \"#utility.yul\":1457:1541   */\n      tag_54\n        /* \"#utility.yul\":1534:1540   */\n      dup2\n        /* \"#utility.yul\":1529:1532   */\n      dup5\n        /* \"#utility.yul\":1457:1541   */\n      tag_31\n      jump\t// in\n    tag_54:\n        /* \"#utility.yul\":1450:1541   */\n      swap3\n      pop\n        /* \"#utility.yul\":1565:1619   */\n      tag_55\n        /* \"#utility.yul\":1613:1618   */\n      dup3\n        /* \"#utility.yul\":1565:1619   */\n      tag_32\n      jump\t// in\n    tag_55:\n        /* \"#utility.yul\":1642:1649   */\n      dup1\n        /* \"#utility.yul\":1673:1674   */\n      0x00\n        /* \"#utility.yul\":1658:1940   */\n    tag_56:\n        /* \"#utility.yul\":1683:1689   */\n      dup4\n        /* \"#utility.yul\":1680:1681   */\n      dup2\n        /* \"#utility.yul\":1677:1690   */\n      lt\n        /* \"#utility.yul\":1658:1940   */\n      iszero\n      tag_58\n      jumpi\n        /* \"#utility.yul\":1759:1765   */\n      dup2\n        /* \"#utility.yul\":1753:1766   */\n      mload\n        /* \"#utility.yul\":1786:1849   */\n      tag_59\n        /* \"#utility.yul\":1845:1848   */\n      dup8\n        /* \"#utility.yul\":1830:1843   */\n      dup3\n        /* \"#utility.yul\":1786:1849   */\n      tag_34\n      jump\t// in\n    tag_59:\n        /* \"#utility.yul\":1779:1849   */\n      swap7\n      pop\n        /* \"#utility.yul\":1872:1930   */\n      tag_60\n        /* \"#utility.yul\":1923:1929   */\n      dup4\n        /* \"#utility.yul\":1872:1930   */\n      tag_35\n      jump\t// in\n    tag_60:\n        /* \"#utility.yul\":1862:1930   */\n      swap3\n      pop\n        /* \"#utility.yul\":1718:1940   */\n      pop\n        /* \"#utility.yul\":1705:1706   */\n      0x01\n        /* \"#utility.yul\":1702:1703   */\n      dup2\n        /* \"#utility.yul\":1698:1707   */\n      add\n        /* \"#utility.yul\":1693:1707   */\n      swap1\n      pop\n        /* \"#utility.yul\":1658:1940   */\n      jump(tag_56)\n    tag_58:\n        /* \"#utility.yul\":1662:1676   */\n      pop\n        /* \"#utility.yul\":1365:1947   */\n      pop\n      pop\n      pop\n        /* \"#utility.yul\":1253:1947   */\n      pop\n      pop\n      jump\t// out\n        /* \"#utility.yul\":1953:2268   */\n    tag_12:\n        /* \"#utility.yul\":2092:2096   */\n      0x00\n        /* \"#utility.yul\":2130:2133   */\n      0xa0\n        /* \"#utility.yul\":2119:2128   */\n      dup3\n        /* \"#utility.yul\":2115:2134   */\n      add\n        /* \"#utility.yul\":2107:2134   */\n      swap1\n      pop\n        /* \"#utility.yul\":2144:2261   */\n      tag_62\n        /* \"#utility.yul\":2258:2259   */\n      0x00\n        /* \"#utility.yul\":2247:2256   */\n      dup4\n        /* \"#utility.yul\":2243:2260   */\n      add\n        /* \"#utility.yul\":2234:2240   */\n      dup5\n        /* \"#utility.yul\":2144:2261   */\n      tag_36\n      jump\t// in\n    tag_62:\n        /* \"#utility.yul\":1953:2268   */\n      swap3\n      swap2\n      pop\n      pop\n      jump\t// out\n        /* \"#utility.yul\":2274:2454   */\n    tag_19:\n        /* \"#utility.yul\":2322:2399   */\n      0x4e487b7100000000000000000000000000000000000000000000000000000000\n        /* \"#utility.yul\":2319:2320   */\n      0x00\n        /* \"#utility.yul\":2312:2400   */\n      mstore\n        /* \"#utility.yul\":2419:2423   */\n      0x32\n        /* \"#utility.yul\":2416:2417   */\n      0x04\n        /* \"#utility.yul\":2409:2424   */\n      mstore\n        /* \"#utility.yul\":2443:2447   */\n      0x24\n        /* \"#utility.yul\":2440:2441   */\n      0x00\n        /* \"#utility.yul\":2433:2448   */\n      revert\n        /* \"#utility.yul\":2460:2640   */\n    tag_37:\n        /* \"#utility.yul\":2508:2585   */\n      0x4e487b7100000000000000000000000000000000000000000000000000000000\n        /* \"#utility.yul\":2505:2506   */\n      0x00\n        /* \"#utility.yul\":2498:2586   */\n      mstore\n        /* \"#utility.yul\":2605:2609   */\n      0x11\n        /* \"#utility.yul\":2602:2603   */\n      0x04\n        /* \"#utility.yul\":2595:2610   */\n      mstore\n        /* \"#utility.yul\":2629:2633   */\n      0x24\n        /* \"#utility.yul\":2626:2627   */\n      0x00\n        /* \"#utility.yul\":2619:2634   */\n      revert\n        /* \"#utility.yul\":2646:2837   */\n    tag_22:\n        /* \"#utility.yul\":2686:2689   */\n      0x00\n        /* \"#utility.yul\":2705:2725   */\n      tag_66\n        /* \"#utility.yul\":2723:2724   */\n      dup3\n        /* \"#utility.yul\":2705:2725   */\n      tag_28\n      jump\t// in\n    tag_66:\n        /* \"#utility.yul\":2700:2725   */\n      swap2\n      pop\n        /* \"#utility.yul\":2739:2759   */\n      tag_67\n        /* \"#utility.yul\":2757:2758   */\n      dup4\n        /* \"#utility.yul\":2739:2759   */\n      tag_28\n      jump\t// in\n    tag_67:\n        /* \"#utility.yul\":2734:2759   */\n      swap3\n      pop\n        /* \"#utility.yul\":2782:2783   */\n      dup3\n        /* \"#utility.yul\":2779:2780   */\n      dup3\n        /* \"#utility.yul\":2775:2784   */\n      add\n        /* \"#utility.yul\":2768:2784   */\n      swap1\n      pop\n        /* \"#utility.yul\":2803:2806   */\n      dup1\n        /* \"#utility.yul\":2800:2801   */\n      dup3\n        /* \"#utility.yul\":2797:2807   */\n      gt\n        /* \"#utility.yul\":2794:2830   */\n      iszero\n      tag_68\n      jumpi\n        /* \"#utility.yul\":2810:2828   */\n      tag_69\n      tag_37\n      jump\t// in\n    tag_69:\n        /* \"#utility.yul\":2794:2830   */\n    tag_68:\n        /* \"#utility.yul\":2646:2837   */\n      swap3\n      swap2\n      pop\n      pop\n      jump\t// out\n\n    auxdata: 0xa264697066735822122055c2f3961f43db469881dd0591583911bbf55768cc8fc44a9c1c32f84cac8aa464736f6c634300081a0033\n}\n",
				"bytecode": {
					"linkReferences": {},
					"object": "60806040526040518060a00160405280600260ff168152602001600360ff168152602001600460ff168152602001600560ff168152602001600660ff168152505f906005604c929190605c565b503480156057575f80fd5b5060b5565b8260058101928215608d579160200282015b82811115608c578251829060ff16905591602001919060010190606e565b5b50905060989190609c565b5090565b5b8082111560b1575f815f905550600101609d565b5090565b6102da806100c25f395ff3fe608060405234801561000f575f80fd5b5060043610610034575f3560e01c806381d7342314610038578063fb8cbced14610056575b5f80fd5b610040610074565b60405161004d9190610140565b60405180910390f35b61005e6100bc565b60405161006b91906101fe565b60405180910390f35b5f805f90505f5b60058110156100b4575f60016005811061009857610097610217565b5b0154826100a59190610271565b9150808060010191505061007b565b508091505090565b6100c4610106565b5f6005806020026040519081016040528092919082600580156100fc576020028201915b8154815260200190600101908083116100e8575b5050505050905090565b6040518060a00160405280600590602082028036833780820191505090505090565b5f819050919050565b61013a81610128565b82525050565b5f6020820190506101535f830184610131565b92915050565b5f60059050919050565b5f81905092915050565b5f819050919050565b61017f81610128565b82525050565b5f6101908383610176565b60208301905092915050565b5f602082019050919050565b6101b181610159565b6101bb8184610163565b92506101c68261016d565b805f5b838110156101f65781516101dd8782610185565b96506101e88361019c565b9250506001810190506101c9565b505050505050565b5f60a0820190506102115f8301846101a8565b92915050565b7f4e487b71000000000000000000000000000000000000000000000000000000005f52603260045260245ffd5b7f4e487b71000000000000000000000000000000000000000000000000000000005f52601160045260245ffd5b5f61027b82610128565b915061028683610128565b925082820190508082111561029e5761029d610244565b5b9291505056fea264697066735822122055c2f3961f43db469881dd0591583911bbf55768cc8fc44a9c1c32f84cac8aa464736f6c634300081a0033",
					"opcodes": "PUSH1 0x80 PUSH1 0x40 MSTORE PUSH1 0x40 MLOAD DUP1 PUSH1 0xA0 ADD PUSH1 0x40 MSTORE DUP1 PUSH1 0x2 PUSH1 0xFF AND DUP2 MSTORE PUSH1 0x20 ADD PUSH1 0x3 PUSH1 0xFF AND DUP2 MSTORE PUSH1 0x20 ADD PUSH1 0x4 PUSH1 0xFF AND DUP2 MSTORE PUSH1 0x20 ADD PUSH1 0x5 PUSH1 0xFF AND DUP2 MSTORE PUSH1 0x20 ADD PUSH1 0x6 PUSH1 0xFF AND DUP2 MSTORE POP PUSH0 SWAP1 PUSH1 0x5 PUSH1 0x4C SWAP3 SWAP2 SWAP1 PUSH1 0x5C JUMP JUMPDEST POP CALLVALUE DUP1 ISZERO PUSH1 0x57 JUMPI PUSH0 DUP1 REVERT JUMPDEST POP PUSH1 0xB5 JUMP JUMPDEST DUP3 PUSH1 0x5 DUP2 ADD SWAP3 DUP3 ISZERO PUSH1 0x8D JUMPI SWAP2 PUSH1 0x20 MUL DUP3 ADD JUMPDEST DUP3 DUP2 GT ISZERO PUSH1 0x8C JUMPI DUP3 MLOAD DUP3 SWAP1 PUSH1 0xFF AND SWAP1 SSTORE SWAP2 PUSH1 0x20 ADD SWAP2 SWAP1 PUSH1 0x1 ADD SWAP1 PUSH1 0x6E JUMP JUMPDEST JUMPDEST POP SWAP1 POP PUSH1 0x98 SWAP2 SWAP1 PUSH1 0x9C JUMP JUMPDEST POP SWAP1 JUMP JUMPDEST JUMPDEST DUP1 DUP3 GT ISZERO PUSH1 0xB1 JUMPI PUSH0 DUP2 PUSH0 SWAP1 SSTORE POP PUSH1 0x1 ADD PUSH1 0x9D JUMP JUMPDEST POP SWAP1 JUMP JUMPDEST PUSH2 0x2DA DUP1 PUSH2 0xC2 PUSH0 CODECOPY PUSH0 RETURN INVALID PUSH1 0x80 PUSH1 0x40 MSTORE CALLVALUE DUP1 ISZERO PUSH2 0xF JUMPI PUSH0 DUP1 REVERT JUMPDEST POP PUSH1 0x4 CALLDATASIZE LT PUSH2 0x34 JUMPI PUSH0 CALLDATALOAD PUSH1 0xE0 SHR DUP1 PUSH4 0x81D73423 EQ PUSH2 0x38 JUMPI DUP1 PUSH4 0xFB8CBCED EQ PUSH2 0x56 JUMPI JUMPDEST PUSH0 DUP1 REVERT JUMPDEST PUSH2 0x40 PUSH2 0x74 JUMP JUMPDEST PUSH1 0x40 MLOAD PUSH2 0x4D SWAP2 SWAP1 PUSH2 0x140 JUMP JUMPDEST PUSH1 0x40 MLOAD DUP1 SWAP2 SUB SWAP1 RETURN JUMPDEST PUSH2 0x5E PUSH2 0xBC JUMP JUMPDEST PUSH1 0x40 MLOAD PUSH2 0x6B SWAP2 SWAP1 PUSH2 0x1FE JUMP JUMPDEST PUSH1 0x40 MLOAD DUP1 SWAP2 SUB SWAP1 RETURN JUMPDEST PUSH0 DUP1 PUSH0 SWAP1 POP PUSH0 JUMPDEST PUSH1 0x5 DUP2 LT ISZERO PUSH2 0xB4 JUMPI PUSH0 PUSH1 0x1 PUSH1 0x5 DUP2 LT PUSH2 0x98 JUMPI PUSH2 0x97 PUSH2 0x217 JUMP JUMPDEST JUMPDEST ADD SLOAD DUP3 PUSH2 0xA5 SWAP2 SWAP1 PUSH2 0x271 JUMP JUMPDEST SWAP2 POP DUP1 DUP1 PUSH1 0x1 ADD SWAP2 POP POP PUSH2 0x7B JUMP JUMPDEST POP DUP1 SWAP2 POP POP SWAP1 JUMP JUMPDEST PUSH2 0xC4 PUSH2 0x106 JUMP JUMPDEST PUSH0 PUSH1 0x5 DUP1 PUSH1 0x20 MUL PUSH1 0x40 MLOAD SWAP1 DUP2 ADD PUSH1 0x40 MSTORE DUP1 SWAP3 SWAP2 SWAP1 DUP3 PUSH1 0x5 DUP1 ISZERO PUSH2 0xFC JUMPI PUSH1 0x20 MUL DUP3 ADD SWAP2 JUMPDEST DUP2 SLOAD DUP2 MSTORE PUSH1 0x20 ADD SWAP1 PUSH1 0x1 ADD SWAP1 DUP1 DUP4 GT PUSH2 0xE8 JUMPI JUMPDEST POP POP POP POP POP SWAP1 POP SWAP1 JUMP JUMPDEST PUSH1 0x40 MLOAD DUP1 PUSH1 0xA0 ADD PUSH1 0x40 MSTORE DUP1 PUSH1 0x5 SWAP1 PUSH1 0x20 DUP3 MUL DUP1 CALLDATASIZE DUP4 CALLDATACOPY DUP1 DUP3 ADD SWAP2 POP POP SWAP1 POP POP SWAP1 JUMP JUMPDEST PUSH0 DUP2 SWAP1 POP SWAP2 SWAP1 POP JUMP JUMPDEST PUSH2 0x13A DUP2 PUSH2 0x128 JUMP JUMPDEST DUP3 MSTORE POP POP JUMP JUMPDEST PUSH0 PUSH1 0x20 DUP3 ADD SWAP1 POP PUSH2 0x153 PUSH0 DUP4 ADD DUP5 PUSH2 0x131 JUMP JUMPDEST SWAP3 SWAP2 POP POP JUMP JUMPDEST PUSH0 PUSH1 0x5 SWAP1 POP SWAP2 SWAP1 POP JUMP JUMPDEST PUSH0 DUP2 SWAP1 POP SWAP3 SWAP2 POP POP JUMP JUMPDEST PUSH0 DUP2 SWAP1 POP SWAP2 SWAP1 POP JUMP JUMPDEST PUSH2 0x17F DUP2 PUSH2 0x128 JUMP JUMPDEST DUP3 MSTORE POP POP JUMP JUMPDEST PUSH0 PUSH2 0x190 DUP4 DUP4 PUSH2 0x176 JUMP JUMPDEST PUSH1 0x20 DUP4 ADD SWAP1 POP SWAP3 SWAP2 POP POP JUMP JUMPDEST PUSH0 PUSH1 0x20 DUP3 ADD SWAP1 POP SWAP2 SWAP1 POP JUMP JUMPDEST PUSH2 0x1B1 DUP2 PUSH2 0x159 JUMP JUMPDEST PUSH2 0x1BB DUP2 DUP5 PUSH2 0x163 JUMP JUMPDEST SWAP3 POP PUSH2 0x1C6 DUP3 PUSH2 0x16D JUMP JUMPDEST DUP1 PUSH0 JUMPDEST DUP4 DUP2 LT ISZERO PUSH2 0x1F6 JUMPI DUP2 MLOAD PUSH2 0x1DD DUP8 DUP3 PUSH2 0x185 JUMP JUMPDEST SWAP7 POP PUSH2 0x1E8 DUP4 PUSH2 0x19C JUMP JUMPDEST SWAP3 POP POP PUSH1 0x1 DUP2 ADD SWAP1 POP PUSH2 0x1C9 JUMP JUMPDEST POP POP POP POP POP POP JUMP JUMPDEST PUSH0 PUSH1 0xA0 DUP3 ADD SWAP1 POP PUSH2 0x211 PUSH0 DUP4 ADD DUP5 PUSH2 0x1A8 JUMP JUMPDEST SWAP3 SWAP2 POP POP JUMP JUMPDEST PUSH32 0x4E487B7100000000000000000000000000000000000000000000000000000000 PUSH0 MSTORE PUSH1 0x32 PUSH1 0x4 MSTORE PUSH1 0x24 PUSH0 REVERT JUMPDEST PUSH32 0x4E487B7100000000000000000000000000000000000000000000000000000000 PUSH0 MSTORE PUSH1 0x11 PUSH1 0x4 MSTORE PUSH1 0x24 PUSH0 REVERT JUMPDEST PUSH0 PUSH2 0x27B DUP3 PUSH2 0x128 JUMP JUMPDEST SWAP2 POP PUSH2 0x286 DUP4 PUSH2 0x128 JUMP JUMPDEST SWAP3 POP DUP3 DUP3 ADD SWAP1 POP DUP1 DUP3 GT ISZERO PUSH2 0x29E JUMPI PUSH2 0x29D PUSH2 0x244 JUMP JUMPDEST JUMPDEST SWAP3 SWAP2 POP POP JUMP INVALID LOG2 PUSH5 0x6970667358 0x22 SLT KECCAK256 SSTORE 0xC2 RETURN SWAP7 0x1F NUMBER 0xDB CHAINID SWAP9 DUP2 0xDD SDIV SWAP2 PC CODECOPY GT 0xBB CREATE2 JUMPI PUSH9 0xCC8FC44A9C1C32F84C 0xAC DUP11 LOG4 PUSH5 0x736F6C6343 STOP ADDMOD BYTE STOP CALLER "
				},
				"gasEstimates": {
					"creation": {
						"codeDepositCost": "146000",
						"executionCost": "infinite",
						"totalCost": "infinite"
					},
					"external": {
						"getArr()": "infinite",
						"sumArray()": "infinite"
					}
				},
				"methodIdentifiers": {
					"getArr()": "fb8cbced",
					"sumArray()": "81d73423"
				}
			},
			"storageLayout": {
				"storage": [
					{
						"astId": 11,
						"contract": "ArrayType.sol:ArrayType",
						"label": "arr",
						"offset": 0,
						"slot": "0",
						"type": "t_array(t_uint256)5_storage"
					}
				],
				"types": {
					"t_array(t_uint256)5_storage": {
						"base": "t_uint256",
						"encoding": "inplace",
						"label": "uint256[5]",
						"numberOfBytes": "160"
					},
					"t_uint256": {
						"encoding": "inplace",
						"label": "uint256",
						"numberOfBytes": "32"
					}
				}
			},
			"userdoc": {
				"kind": "user",
				"methods": {},
				"version": 1
			}
		}
	}
}